{
  "_format": "hh-sol-artifact-1",
  "contractName": "TestNostraToken",
  "sourceName": "contracts/TestNostraToken.sol",
  "abi": [
    {
      "inputs": [
        {
          "internalType": "uint256",
          "name": "_initialMintAmount",
          "type": "uint256"
        }
      ],
      "stateMutability": "nonpayable",
      "type": "constructor"
    },
    {
      "inputs": [
        {
          "internalType": "address",
          "name": "spender",
          "type": "address"
        },
        {
          "internalType": "uint256",
          "name": "allowance",
          "type": "uint256"
        },
        {
          "internalType": "uint256",
          "name": "needed",
          "type": "uint256"
        }
      ],
      "name": "ERC20InsufficientAllowance",
      "type": "error"
    },
    {
      "inputs": [
        {
          "internalType": "address",
          "name": "sender",
          "type": "address"
        },
        {
          "internalType": "uint256",
          "name": "balance",
          "type": "uint256"
        },
        {
          "internalType": "uint256",
          "name": "needed",
          "type": "uint256"
        }
      ],
      "name": "ERC20InsufficientBalance",
      "type": "error"
    },
    {
      "inputs": [
        {
          "internalType": "address",
          "name": "approver",
          "type": "address"
        }
      ],
      "name": "ERC20InvalidApprover",
      "type": "error"
    },
    {
      "inputs": [
        {
          "internalType": "address",
          "name": "receiver",
          "type": "address"
        }
      ],
      "name": "ERC20InvalidReceiver",
      "type": "error"
    },
    {
      "inputs": [
        {
          "internalType": "address",
          "name": "sender",
          "type": "address"
        }
      ],
      "name": "ERC20InvalidSender",
      "type": "error"
    },
    {
      "inputs": [
        {
          "internalType": "address",
          "name": "spender",
          "type": "address"
        }
      ],
      "name": "ERC20InvalidSpender",
      "type": "error"
    },
    {
      "inputs": [
        {
          "internalType": "address",
          "name": "owner",
          "type": "address"
        }
      ],
      "name": "OwnableInvalidOwner",
      "type": "error"
    },
    {
      "inputs": [
        {
          "internalType": "address",
          "name": "account",
          "type": "address"
        }
      ],
      "name": "OwnableUnauthorizedAccount",
      "type": "error"
    },
    {
      "anonymous": false,
      "inputs": [
        {
          "indexed": true,
          "internalType": "address",
          "name": "owner",
          "type": "address"
        },
        {
          "indexed": true,
          "internalType": "address",
          "name": "spender",
          "type": "address"
        },
        {
          "indexed": false,
          "internalType": "uint256",
          "name": "value",
          "type": "uint256"
        }
      ],
      "name": "Approval",
      "type": "event"
    },
    {
      "anonymous": false,
      "inputs": [
        {
          "indexed": true,
          "internalType": "address",
          "name": "previousOwner",
          "type": "address"
        },
        {
          "indexed": true,
          "internalType": "address",
          "name": "newOwner",
          "type": "address"
        }
      ],
      "name": "OwnershipTransferred",
      "type": "event"
    },
    {
      "anonymous": false,
      "inputs": [
        {
          "indexed": true,
          "internalType": "address",
          "name": "from",
          "type": "address"
        },
        {
          "indexed": true,
          "internalType": "address",
          "name": "to",
          "type": "address"
        },
        {
          "indexed": false,
          "internalType": "uint256",
          "name": "value",
          "type": "uint256"
        }
      ],
      "name": "Transfer",
      "type": "event"
    },
    {
      "inputs": [],
      "name": "TOTAL_SUPPLY",
      "outputs": [
        {
          "internalType": "uint256",
          "name": "",
          "type": "uint256"
        }
      ],
      "stateMutability": "view",
      "type": "function"
    },
    {
      "inputs": [
        {
          "internalType": "address",
          "name": "owner",
          "type": "address"
        },
        {
          "internalType": "address",
          "name": "spender",
          "type": "address"
        }
      ],
      "name": "allowance",
      "outputs": [
        {
          "internalType": "uint256",
          "name": "",
          "type": "uint256"
        }
      ],
      "stateMutability": "view",
      "type": "function"
    },
    {
      "inputs": [
        {
          "internalType": "address",
          "name": "spender",
          "type": "address"
        },
        {
          "internalType": "uint256",
          "name": "value",
          "type": "uint256"
        }
      ],
      "name": "approve",
      "outputs": [
        {
          "internalType": "bool",
          "name": "",
          "type": "bool"
        }
      ],
      "stateMutability": "nonpayable",
      "type": "function"
    },
    {
      "inputs": [
        {
          "internalType": "address",
          "name": "account",
          "type": "address"
        }
      ],
      "name": "balanceOf",
      "outputs": [
        {
          "internalType": "uint256",
          "name": "",
          "type": "uint256"
        }
      ],
      "stateMutability": "view",
      "type": "function"
    },
    {
      "inputs": [],
      "name": "decimals",
      "outputs": [
        {
          "internalType": "uint8",
          "name": "",
          "type": "uint8"
        }
      ],
      "stateMutability": "view",
      "type": "function"
    },
    {
      "inputs": [
        {
          "internalType": "address",
          "name": "",
          "type": "address"
        }
      ],
      "name": "hasMinted",
      "outputs": [
        {
          "internalType": "bool",
          "name": "",
          "type": "bool"
        }
      ],
      "stateMutability": "view",
      "type": "function"
    },
    {
      "inputs": [],
      "name": "mint",
      "outputs": [],
      "stateMutability": "nonpayable",
      "type": "function"
    },
    {
      "inputs": [],
      "name": "mintAmount",
      "outputs": [
        {
          "internalType": "uint256",
          "name": "",
          "type": "uint256"
        }
      ],
      "stateMutability": "view",
      "type": "function"
    },
    {
      "inputs": [],
      "name": "name",
      "outputs": [
        {
          "internalType": "string",
          "name": "",
          "type": "string"
        }
      ],
      "stateMutability": "view",
      "type": "function"
    },
    {
      "inputs": [],
      "name": "owner",
      "outputs": [
        {
          "internalType": "address",
          "name": "",
          "type": "address"
        }
      ],
      "stateMutability": "view",
      "type": "function"
    },
    {
      "inputs": [],
      "name": "renounceOwnership",
      "outputs": [],
      "stateMutability": "nonpayable",
      "type": "function"
    },
    {
      "inputs": [
        {
          "internalType": "uint256",
          "name": "_newMintAmount",
          "type": "uint256"
        }
      ],
      "name": "setMintAmount",
      "outputs": [],
      "stateMutability": "nonpayable",
      "type": "function"
    },
    {
      "inputs": [],
      "name": "symbol",
      "outputs": [
        {
          "internalType": "string",
          "name": "",
          "type": "string"
        }
      ],
      "stateMutability": "view",
      "type": "function"
    },
    {
      "inputs": [],
      "name": "totalSupply",
      "outputs": [
        {
          "internalType": "uint256",
          "name": "",
          "type": "uint256"
        }
      ],
      "stateMutability": "view",
      "type": "function"
    },
    {
      "inputs": [
        {
          "internalType": "address",
          "name": "to",
          "type": "address"
        },
        {
          "internalType": "uint256",
          "name": "value",
          "type": "uint256"
        }
      ],
      "name": "transfer",
      "outputs": [
        {
          "internalType": "bool",
          "name": "",
          "type": "bool"
        }
      ],
      "stateMutability": "nonpayable",
      "type": "function"
    },
    {
      "inputs": [
        {
          "internalType": "address",
          "name": "from",
          "type": "address"
        },
        {
          "internalType": "address",
          "name": "to",
          "type": "address"
        },
        {
          "internalType": "uint256",
          "name": "value",
          "type": "uint256"
        }
      ],
      "name": "transferFrom",
      "outputs": [
        {
          "internalType": "bool",
          "name": "",
          "type": "bool"
        }
      ],
      "stateMutability": "nonpayable",
      "type": "function"
    },
    {
      "inputs": [
        {
          "internalType": "address",
          "name": "newOwner",
          "type": "address"
        }
      ],
      "name": "transferOwnership",
      "outputs": [],
      "stateMutability": "nonpayable",
      "type": "function"
    }
  ],
  "bytecode": "0x608060405234801561001057600080fd5b50604051611acb380380611acb83398181016040528101906100329190610251565b336040518060400160405280600f81526020017f546573744e6f73747261546f6b656e00000000000000000000000000000000008152506040518060400160405280600481526020017f744e53540000000000000000000000000000000000000000000000000000000081525081600390816100ae91906104c4565b5080600490816100be91906104c4565b505050600073ffffffffffffffffffffffffffffffffffffffff168173ffffffffffffffffffffffffffffffffffffffff16036101335760006040517f1e4fbdf700000000000000000000000000000000000000000000000000000000815260040161012a91906105d7565b60405180910390fd5b6101428161015060201b60201c565b5080600681905550506105f2565b6000600560009054906101000a900473ffffffffffffffffffffffffffffffffffffffff16905081600560006101000a81548173ffffffffffffffffffffffffffffffffffffffff021916908373ffffffffffffffffffffffffffffffffffffffff1602179055508173ffffffffffffffffffffffffffffffffffffffff168173ffffffffffffffffffffffffffffffffffffffff167f8be0079c531659141344cd1fd0a4f28419497f9722a3daafe3b4186f6b6457e060405160405180910390a35050565b600080fd5b6000819050919050565b61022e8161021b565b811461023957600080fd5b50565b60008151905061024b81610225565b92915050565b60006020828403121561026757610266610216565b5b60006102758482850161023c565b91505092915050565b600081519050919050565b7f4e487b7100000000000000000000000000000000000000000000000000000000600052604160045260246000fd5b7f4e487b7100000000000000000000000000000000000000000000000000000000600052602260045260246000fd5b600060028204905060018216806102ff57607f821691505b602082108103610312576103116102b8565b5b50919050565b60008190508160005260206000209050919050565b60006020601f8301049050919050565b600082821b905092915050565b60006008830261037a7fffffffffffffffffffffffffffffffffffffffffffffffffffffffffffffffff8261033d565b610384868361033d565b95508019841693508086168417925050509392505050565b6000819050919050565b60006103c16103bc6103b78461021b565b61039c565b61021b565b9050919050565b6000819050919050565b6103db836103a6565b6103ef6103e7826103c8565b84845461034a565b825550505050565b600090565b6104046103f7565b61040f8184846103d2565b505050565b5b81811015610433576104286000826103fc565b600181019050610415565b5050565b601f8211156104785761044981610318565b6104528461032d565b81016020851015610461578190505b61047561046d8561032d565b830182610414565b50505b505050565b600082821c905092915050565b600061049b6000198460080261047d565b1980831691505092915050565b60006104b4838361048a565b9150826002028217905092915050565b6104cd8261027e565b67ffffffffffffffff8111156104e6576104e5610289565b5b6104f082546102e7565b6104fb828285610437565b600060209050601f83116001811461052e576000841561051c578287015190505b61052685826104a8565b86555061058e565b601f19841661053c86610318565b60005b828110156105645784890151825560018201915060208501945060208101905061053f565b86831015610581578489015161057d601f89168261048a565b8355505b6001600288020188555050505b505050505050565b600073ffffffffffffffffffffffffffffffffffffffff82169050919050565b60006105c182610596565b9050919050565b6105d1816105b6565b82525050565b60006020820190506105ec60008301846105c8565b92915050565b6114ca806106016000396000f3fe608060405234801561001057600080fd5b506004361061010b5760003560e01c806370a08231116100a257806395d89b411161007157806395d89b4114610298578063a9059cbb146102b6578063c7cd997f146102e6578063dd62ed3e14610302578063f2fde38b146103325761010b565b806370a0823114610222578063715018a6146102525780638da5cb5b1461025c578063902d55a51461027a5761010b565b806323b872dd116100de57806323b872dd14610186578063313ce567146101b657806338e21cce146101d45780635a2bcc18146102045761010b565b806306fdde0314610110578063095ea7b31461012e5780631249c58b1461015e57806318160ddd14610168575b600080fd5b61011861034e565b6040516101259190611019565b60405180910390f35b610148600480360381019061014391906110d4565b6103e0565b604051610155919061112f565b60405180910390f35b610166610403565b005b610170610551565b60405161017d9190611159565b60405180910390f35b6101a0600480360381019061019b9190611174565b61055b565b6040516101ad919061112f565b60405180910390f35b6101be61058a565b6040516101cb91906111e3565b60405180910390f35b6101ee60048036038101906101e991906111fe565b610593565b6040516101fb919061112f565b60405180910390f35b61020c6105b3565b6040516102199190611159565b60405180910390f35b61023c600480360381019061023791906111fe565b6105b9565b6040516102499190611159565b60405180910390f35b61025a610601565b005b610264610615565b604051610271919061123a565b60405180910390f35b61028261063f565b60405161028f9190611159565b60405180910390f35b6102a0610647565b6040516102ad9190611019565b60405180910390f35b6102d060048036038101906102cb91906110d4565b6106d9565b6040516102dd919061112f565b60405180910390f35b61030060048036038101906102fb9190611255565b6106fc565b005b61031c60048036038101906103179190611282565b61070e565b6040516103299190611159565b60405180910390f35b61034c600480360381019061034791906111fe565b610795565b005b60606003805461035d906112f1565b80601f0160208091040260200160405190810160405280929190818152602001828054610389906112f1565b80156103d65780601f106103ab576101008083540402835291602001916103d6565b820191906000526020600020905b8154815290600101906020018083116103b957829003601f168201915b5050505050905090565b6000806103eb61081b565b90506103f8818585610823565b600191505092915050565b600760003373ffffffffffffffffffffffffffffffffffffffff1673ffffffffffffffffffffffffffffffffffffffff16815260200190815260200160002060009054906101000a900460ff1615610490576040517f08c379a00000000000000000000000000000000000000000000000000000000081526004016104879061136e565b60405180910390fd5b633b9aca006006546104a0610551565b6104aa91906113bd565b11156104eb576040517f08c379a00000000000000000000000000000000000000000000000000000000081526004016104e29061143d565b60405180910390fd5b6001600760003373ffffffffffffffffffffffffffffffffffffffff1673ffffffffffffffffffffffffffffffffffffffff16815260200190815260200160002060006101000a81548160ff02191690831515021790555061054f33600654610835565b565b6000600254905090565b60008061056661081b565b90506105738582856108b7565b61057e85858561094c565b60019150509392505050565b60006012905090565b60076020528060005260406000206000915054906101000a900460ff1681565b60065481565b60008060008373ffffffffffffffffffffffffffffffffffffffff1673ffffffffffffffffffffffffffffffffffffffff168152602001908152602001600020549050919050565b610609610a40565b6106136000610ac7565b565b6000600560009054906101000a900473ffffffffffffffffffffffffffffffffffffffff16905090565b633b9aca0081565b606060048054610656906112f1565b80601f0160208091040260200160405190810160405280929190818152602001828054610682906112f1565b80156106cf5780601f106106a4576101008083540402835291602001916106cf565b820191906000526020600020905b8154815290600101906020018083116106b257829003601f168201915b5050505050905090565b6000806106e461081b565b90506106f181858561094c565b600191505092915050565b610704610a40565b8060068190555050565b6000600160008473ffffffffffffffffffffffffffffffffffffffff1673ffffffffffffffffffffffffffffffffffffffff16815260200190815260200160002060008373ffffffffffffffffffffffffffffffffffffffff1673ffffffffffffffffffffffffffffffffffffffff16815260200190815260200160002054905092915050565b61079d610a40565b600073ffffffffffffffffffffffffffffffffffffffff168173ffffffffffffffffffffffffffffffffffffffff160361080f5760006040517f1e4fbdf7000000000000000000000000000000000000000000000000000000008152600401610806919061123a565b60405180910390fd5b61081881610ac7565b50565b600033905090565b6108308383836001610b8d565b505050565b600073ffffffffffffffffffffffffffffffffffffffff168273ffffffffffffffffffffffffffffffffffffffff16036108a75760006040517fec442f0500000000000000000000000000000000000000000000000000000000815260040161089e919061123a565b60405180910390fd5b6108b360008383610d64565b5050565b60006108c3848461070e565b90507fffffffffffffffffffffffffffffffffffffffffffffffffffffffffffffffff8110156109465781811015610936578281836040517ffb8f41b200000000000000000000000000000000000000000000000000000000815260040161092d9392919061145d565b60405180910390fd5b61094584848484036000610b8d565b5b50505050565b600073ffffffffffffffffffffffffffffffffffffffff168373ffffffffffffffffffffffffffffffffffffffff16036109be5760006040517f96c6fd1e0000000000000000000000000000000000000000000000000000000081526004016109b5919061123a565b60405180910390fd5b600073ffffffffffffffffffffffffffffffffffffffff168273ffffffffffffffffffffffffffffffffffffffff1603610a305760006040517fec442f05000000000000000000000000000000000000000000000000000000008152600401610a27919061123a565b60405180910390fd5b610a3b838383610d64565b505050565b610a4861081b565b73ffffffffffffffffffffffffffffffffffffffff16610a66610615565b73ffffffffffffffffffffffffffffffffffffffff1614610ac557610a8961081b565b6040517f118cdaa7000000000000000000000000000000000000000000000000000000008152600401610abc919061123a565b60405180910390fd5b565b6000600560009054906101000a900473ffffffffffffffffffffffffffffffffffffffff16905081600560006101000a81548173ffffffffffffffffffffffffffffffffffffffff021916908373ffffffffffffffffffffffffffffffffffffffff1602179055508173ffffffffffffffffffffffffffffffffffffffff168173ffffffffffffffffffffffffffffffffffffffff167f8be0079c531659141344cd1fd0a4f28419497f9722a3daafe3b4186f6b6457e060405160405180910390a35050565b600073ffffffffffffffffffffffffffffffffffffffff168473ffffffffffffffffffffffffffffffffffffffff1603610bff5760006040517fe602df05000000000000000000000000000000000000000000000000000000008152600401610bf6919061123a565b60405180910390fd5b600073ffffffffffffffffffffffffffffffffffffffff168373ffffffffffffffffffffffffffffffffffffffff1603610c715760006040517f94280d62000000000000000000000000000000000000000000000000000000008152600401610c68919061123a565b60405180910390fd5b81600160008673ffffffffffffffffffffffffffffffffffffffff1673ffffffffffffffffffffffffffffffffffffffff16815260200190815260200160002060008573ffffffffffffffffffffffffffffffffffffffff1673ffffffffffffffffffffffffffffffffffffffff168152602001908152602001600020819055508015610d5e578273ffffffffffffffffffffffffffffffffffffffff168473ffffffffffffffffffffffffffffffffffffffff167f8c5be1e5ebec7d5bd14f71427d1e84f3dd0314c0f7b2291e5b200ac8c7c3b92584604051610d559190611159565b60405180910390a35b50505050565b600073ffffffffffffffffffffffffffffffffffffffff168373ffffffffffffffffffffffffffffffffffffffff1603610db6578060026000828254610daa91906113bd565b92505081905550610e89565b60008060008573ffffffffffffffffffffffffffffffffffffffff1673ffffffffffffffffffffffffffffffffffffffff16815260200190815260200160002054905081811015610e42578381836040517fe450d38c000000000000000000000000000000000000000000000000000000008152600401610e399392919061145d565b60405180910390fd5b8181036000808673ffffffffffffffffffffffffffffffffffffffff1673ffffffffffffffffffffffffffffffffffffffff16815260200190815260200160002081905550505b600073ffffffffffffffffffffffffffffffffffffffff168273ffffffffffffffffffffffffffffffffffffffff1603610ed25780600260008282540392505081905550610f1f565b806000808473ffffffffffffffffffffffffffffffffffffffff1673ffffffffffffffffffffffffffffffffffffffff168152602001908152602001600020600082825401925050819055505b8173ffffffffffffffffffffffffffffffffffffffff168373ffffffffffffffffffffffffffffffffffffffff167fddf252ad1be2c89b69c2b068fc378daa952ba7f163c4a11628f55a4df523b3ef83604051610f7c9190611159565b60405180910390a3505050565b600081519050919050565b600082825260208201905092915050565b60005b83811015610fc3578082015181840152602081019050610fa8565b60008484015250505050565b6000601f19601f8301169050919050565b6000610feb82610f89565b610ff58185610f94565b9350611005818560208601610fa5565b61100e81610fcf565b840191505092915050565b600060208201905081810360008301526110338184610fe0565b905092915050565b600080fd5b600073ffffffffffffffffffffffffffffffffffffffff82169050919050565b600061106b82611040565b9050919050565b61107b81611060565b811461108657600080fd5b50565b60008135905061109881611072565b92915050565b6000819050919050565b6110b18161109e565b81146110bc57600080fd5b50565b6000813590506110ce816110a8565b92915050565b600080604083850312156110eb576110ea61103b565b5b60006110f985828601611089565b925050602061110a858286016110bf565b9150509250929050565b60008115159050919050565b61112981611114565b82525050565b60006020820190506111446000830184611120565b92915050565b6111538161109e565b82525050565b600060208201905061116e600083018461114a565b92915050565b60008060006060848603121561118d5761118c61103b565b5b600061119b86828701611089565b93505060206111ac86828701611089565b92505060406111bd868287016110bf565b9150509250925092565b600060ff82169050919050565b6111dd816111c7565b82525050565b60006020820190506111f860008301846111d4565b92915050565b6000602082840312156112145761121361103b565b5b600061122284828501611089565b91505092915050565b61123481611060565b82525050565b600060208201905061124f600083018461122b565b92915050565b60006020828403121561126b5761126a61103b565b5b6000611279848285016110bf565b91505092915050565b600080604083850312156112995761129861103b565b5b60006112a785828601611089565b92505060206112b885828601611089565b9150509250929050565b7f4e487b7100000000000000000000000000000000000000000000000000000000600052602260045260246000fd5b6000600282049050600182168061130957607f821691505b60208210810361131c5761131b6112c2565b5b50919050565b7f416c7265616479206d696e746564000000000000000000000000000000000000600082015250565b6000611358600e83610f94565b915061136382611322565b602082019050919050565b600060208201905081810360008301526113878161134b565b9050919050565b7f4e487b7100000000000000000000000000000000000000000000000000000000600052601160045260246000fd5b60006113c88261109e565b91506113d38361109e565b92508282019050808211156113eb576113ea61138e565b5b92915050565b7f576f756c642065786365656420746f74616c20737570706c7900000000000000600082015250565b6000611427601983610f94565b9150611432826113f1565b602082019050919050565b600060208201905081810360008301526114568161141a565b9050919050565b6000606082019050611472600083018661122b565b61147f602083018561114a565b61148c604083018461114a565b94935050505056fea2646970667358221220cbd97cda4cb8e3da2e520382880d6b1272f11d59cc2d602c2588af517e2575fb64736f6c634300081c0033",
  "linkReferences": {},
  "deployedLinkReferences": {}
}