{
  "_format": "hh-sol-artifact-1",
  "contractName": "StakingContract",
  "sourceName": "contracts/StakingContract.sol",
  "abi": [
    {
      "inputs": [
        {
          "internalType": "address",
          "name": "_gameToken",
          "type": "address"
        },
        {
          "internalType": "address",
          "name": "_hostAgent",
          "type": "address"
        },
        {
          "internalType": "address",
          "name": "_treasuryManager",
          "type": "address"
        },
        {
          "internalType": "uint256",
          "name": "_entryFee",
          "type": "uint256"
        },
        {
          "internalType": "uint256",
          "name": "_burnPercentage",
          "type": "uint256"
        }
      ],
      "stateMutability": "nonpayable",
      "type": "constructor"
    },
    {
      "inputs": [],
      "name": "ReentrancyGuardReentrantCall",
      "type": "error"
    },
    {
      "anonymous": false,
      "inputs": [
        {
          "indexed": false,
          "internalType": "uint256",
          "name": "newBurnPercentage",
          "type": "uint256"
        }
      ],
      "name": "BurnPercentageUpdated",
      "type": "event"
    },
    {
      "anonymous": false,
      "inputs": [
        {
          "indexed": false,
          "internalType": "uint256",
          "name": "amount",
          "type": "uint256"
        },
        {
          "indexed": true,
          "internalType": "address",
          "name": "to",
          "type": "address"
        }
      ],
      "name": "Investment",
      "type": "event"
    },
    {
      "anonymous": false,
      "inputs": [
        {
          "indexed": true,
          "internalType": "uint256",
          "name": "roundId",
          "type": "uint256"
        },
        {
          "indexed": false,
          "internalType": "uint256",
          "name": "playerCount",
          "type": "uint256"
        },
        {
          "indexed": false,
          "internalType": "uint256",
          "name": "threshold",
          "type": "uint256"
        },
        {
          "indexed": false,
          "internalType": "uint256",
          "name": "multiplier",
          "type": "uint256"
        },
        {
          "indexed": false,
          "internalType": "uint256",
          "name": "expiryBlock",
          "type": "uint256"
        }
      ],
      "name": "RoundInitialized",
      "type": "event"
    },
    {
      "anonymous": false,
      "inputs": [
        {
          "indexed": true,
          "internalType": "uint256",
          "name": "roundId",
          "type": "uint256"
        },
        {
          "indexed": false,
          "internalType": "uint256",
          "name": "newMultiplier",
          "type": "uint256"
        }
      ],
      "name": "RoundMultiplierAdjusted",
      "type": "event"
    },
    {
      "anonymous": false,
      "inputs": [
        {
          "indexed": true,
          "internalType": "uint256",
          "name": "roundId",
          "type": "uint256"
        },
        {
          "indexed": false,
          "internalType": "string",
          "name": "resolution",
          "type": "string"
        },
        {
          "indexed": false,
          "internalType": "address[]",
          "name": "players",
          "type": "address[]"
        },
        {
          "indexed": false,
          "internalType": "uint256[]",
          "name": "distributions",
          "type": "uint256[]"
        }
      ],
      "name": "RoundResolved",
      "type": "event"
    },
    {
      "anonymous": false,
      "inputs": [
        {
          "indexed": true,
          "internalType": "uint256",
          "name": "roundId",
          "type": "uint256"
        },
        {
          "indexed": false,
          "internalType": "uint256",
          "name": "newThreshold",
          "type": "uint256"
        }
      ],
      "name": "RoundThresholdAdjusted",
      "type": "event"
    },
    {
      "anonymous": false,
      "inputs": [
        {
          "indexed": true,
          "internalType": "address",
          "name": "user",
          "type": "address"
        },
        {
          "indexed": false,
          "internalType": "uint256",
          "name": "amount",
          "type": "uint256"
        }
      ],
      "name": "Staked",
      "type": "event"
    },
    {
      "anonymous": false,
      "inputs": [
        {
          "indexed": true,
          "internalType": "address",
          "name": "user",
          "type": "address"
        },
        {
          "indexed": false,
          "internalType": "uint256",
          "name": "amount",
          "type": "uint256"
        }
      ],
      "name": "TokensBurned",
      "type": "event"
    },
    {
      "anonymous": false,
      "inputs": [
        {
          "indexed": false,
          "internalType": "uint256",
          "name": "newBalance",
          "type": "uint256"
        }
      ],
      "name": "TreasuryBalanceChange",
      "type": "event"
    },
    {
      "anonymous": false,
      "inputs": [
        {
          "indexed": true,
          "internalType": "address",
          "name": "user",
          "type": "address"
        },
        {
          "indexed": false,
          "internalType": "uint256",
          "name": "amount",
          "type": "uint256"
        }
      ],
      "name": "Unstaked",
      "type": "event"
    },
    {
      "anonymous": false,
      "inputs": [
        {
          "indexed": true,
          "internalType": "address",
          "name": "user",
          "type": "address"
        },
        {
          "indexed": true,
          "internalType": "uint256",
          "name": "roundId",
          "type": "uint256"
        },
        {
          "indexed": false,
          "internalType": "uint256",
          "name": "amount",
          "type": "uint256"
        }
      ],
      "name": "UserEnteredRound",
      "type": "event"
    },
    {
      "anonymous": false,
      "inputs": [
        {
          "indexed": true,
          "internalType": "address",
          "name": "user",
          "type": "address"
        },
        {
          "indexed": true,
          "internalType": "uint256",
          "name": "roundId",
          "type": "uint256"
        },
        {
          "indexed": false,
          "internalType": "uint256",
          "name": "amount",
          "type": "uint256"
        }
      ],
      "name": "UserExitedRound",
      "type": "event"
    },
    {
      "inputs": [
        {
          "internalType": "uint256",
          "name": "roundId",
          "type": "uint256"
        },
        {
          "internalType": "int256",
          "name": "multiplierDeltaPercent",
          "type": "int256"
        }
      ],
      "name": "adjustRoundMultiplier",
      "outputs": [],
      "stateMutability": "nonpayable",
      "type": "function"
    },
    {
      "inputs": [
        {
          "internalType": "uint256",
          "name": "roundId",
          "type": "uint256"
        },
        {
          "internalType": "int256",
          "name": "thresholdDeltaPercent",
          "type": "int256"
        }
      ],
      "name": "adjustRoundThreshold",
      "outputs": [],
      "stateMutability": "nonpayable",
      "type": "function"
    },
    {
      "inputs": [],
      "name": "burnPercentage",
      "outputs": [
        {
          "internalType": "uint256",
          "name": "",
          "type": "uint256"
        }
      ],
      "stateMutability": "view",
      "type": "function"
    },
    {
      "inputs": [],
      "name": "currentRoundId",
      "outputs": [
        {
          "internalType": "uint256",
          "name": "",
          "type": "uint256"
        }
      ],
      "stateMutability": "view",
      "type": "function"
    },
    {
      "inputs": [
        {
          "internalType": "uint256",
          "name": "roundId",
          "type": "uint256"
        },
        {
          "internalType": "address",
          "name": "player",
          "type": "address"
        },
        {
          "internalType": "uint256",
          "name": "amount",
          "type": "uint256"
        }
      ],
      "name": "enterRound",
      "outputs": [],
      "stateMutability": "nonpayable",
      "type": "function"
    },
    {
      "inputs": [],
      "name": "entryFee",
      "outputs": [
        {
          "internalType": "uint256",
          "name": "",
          "type": "uint256"
        }
      ],
      "stateMutability": "view",
      "type": "function"
    },
    {
      "inputs": [
        {
          "internalType": "uint256",
          "name": "roundId",
          "type": "uint256"
        },
        {
          "internalType": "address",
          "name": "player",
          "type": "address"
        },
        {
          "internalType": "uint256",
          "name": "amount",
          "type": "uint256"
        }
      ],
      "name": "exitRound",
      "outputs": [],
      "stateMutability": "nonpayable",
      "type": "function"
    },
    {
      "inputs": [],
      "name": "gameToken",
      "outputs": [
        {
          "internalType": "contract IERC20",
          "name": "",
          "type": "address"
        }
      ],
      "stateMutability": "view",
      "type": "function"
    },
    {
      "inputs": [],
      "name": "getActiveRounds",
      "outputs": [
        {
          "internalType": "uint256[]",
          "name": "",
          "type": "uint256[]"
        }
      ],
      "stateMutability": "view",
      "type": "function"
    },
    {
      "inputs": [
        {
          "internalType": "uint256",
          "name": "roundId",
          "type": "uint256"
        }
      ],
      "name": "getRoundInfo",
      "outputs": [
        {
          "internalType": "uint256",
          "name": "maxPlayerCount",
          "type": "uint256"
        },
        {
          "internalType": "uint256",
          "name": "threshold",
          "type": "uint256"
        },
        {
          "internalType": "uint256",
          "name": "multiplier",
          "type": "uint256"
        },
        {
          "internalType": "uint256",
          "name": "expiryBlockNumber",
          "type": "uint256"
        },
        {
          "internalType": "uint256",
          "name": "totalStaked",
          "type": "uint256"
        },
        {
          "internalType": "bool",
          "name": "isResolved",
          "type": "bool"
        }
      ],
      "stateMutability": "view",
      "type": "function"
    },
    {
      "inputs": [
        {
          "internalType": "uint256",
          "name": "roundId",
          "type": "uint256"
        }
      ],
      "name": "getRoundPlayers",
      "outputs": [
        {
          "internalType": "address[]",
          "name": "addresses",
          "type": "address[]"
        },
        {
          "internalType": "uint256[]",
          "name": "stakes",
          "type": "uint256[]"
        }
      ],
      "stateMutability": "view",
      "type": "function"
    },
    {
      "inputs": [],
      "name": "hostAgent",
      "outputs": [
        {
          "internalType": "address",
          "name": "",
          "type": "address"
        }
      ],
      "stateMutability": "view",
      "type": "function"
    },
    {
      "inputs": [
        {
          "internalType": "uint256",
          "name": "maxPlayerCount",
          "type": "uint256"
        },
        {
          "internalType": "uint256",
          "name": "threshold",
          "type": "uint256"
        },
        {
          "internalType": "uint256",
          "name": "multiplier",
          "type": "uint256"
        },
        {
          "internalType": "uint256",
          "name": "expiryBlock",
          "type": "uint256"
        },
        {
          "internalType": "uint256",
          "name": "maxStakePerPlayer",
          "type": "uint256"
        }
      ],
      "name": "initializeRound",
      "outputs": [],
      "stateMutability": "nonpayable",
      "type": "function"
    },
    {
      "inputs": [
        {
          "internalType": "address",
          "name": "project",
          "type": "address"
        },
        {
          "internalType": "uint256",
          "name": "amount",
          "type": "uint256"
        }
      ],
      "name": "investDeSci",
      "outputs": [],
      "stateMutability": "nonpayable",
      "type": "function"
    },
    {
      "inputs": [
        {
          "internalType": "address",
          "name": "",
          "type": "address"
        }
      ],
      "name": "players",
      "outputs": [
        {
          "internalType": "uint256",
          "name": "availableStakes",
          "type": "uint256"
        },
        {
          "internalType": "uint256",
          "name": "unavailableStakes",
          "type": "uint256"
        }
      ],
      "stateMutability": "view",
      "type": "function"
    },
    {
      "inputs": [
        {
          "internalType": "uint256",
          "name": "roundId",
          "type": "uint256"
        }
      ],
      "name": "resolveRound",
      "outputs": [],
      "stateMutability": "nonpayable",
      "type": "function"
    },
    {
      "inputs": [
        {
          "internalType": "uint256",
          "name": "",
          "type": "uint256"
        }
      ],
      "name": "rounds",
      "outputs": [
        {
          "internalType": "uint256",
          "name": "maxPlayerCount",
          "type": "uint256"
        },
        {
          "internalType": "uint256",
          "name": "threshold",
          "type": "uint256"
        },
        {
          "internalType": "uint256",
          "name": "multiplier",
          "type": "uint256"
        },
        {
          "internalType": "uint256",
          "name": "expiryBlockNumber",
          "type": "uint256"
        },
        {
          "internalType": "uint256",
          "name": "totalStaked",
          "type": "uint256"
        },
        {
          "internalType": "uint256",
          "name": "maxStakePerPlayer",
          "type": "uint256"
        },
        {
          "internalType": "bool",
          "name": "isResolved",
          "type": "bool"
        }
      ],
      "stateMutability": "view",
      "type": "function"
    },
    {
      "inputs": [
        {
          "internalType": "uint256",
          "name": "amount",
          "type": "uint256"
        }
      ],
      "name": "stake",
      "outputs": [],
      "stateMutability": "nonpayable",
      "type": "function"
    },
    {
      "inputs": [],
      "name": "treasuryBalance",
      "outputs": [
        {
          "internalType": "uint256",
          "name": "",
          "type": "uint256"
        }
      ],
      "stateMutability": "view",
      "type": "function"
    },
    {
      "inputs": [],
      "name": "treasuryManager",
      "outputs": [
        {
          "internalType": "address",
          "name": "",
          "type": "address"
        }
      ],
      "stateMutability": "view",
      "type": "function"
    },
    {
      "inputs": [
        {
          "internalType": "uint256",
          "name": "amount",
          "type": "uint256"
        }
      ],
      "name": "unstake",
      "outputs": [],
      "stateMutability": "nonpayable",
      "type": "function"
    },
    {
      "inputs": [
        {
          "internalType": "uint256",
          "name": "_burnPercentage",
          "type": "uint256"
        }
      ],
      "name": "updateBurnPercentage",
      "outputs": [],
      "stateMutability": "nonpayable",
      "type": "function"
    }
  ],
  "bytecode": "0x608060405234801561001057600080fd5b50604051613f5f380380613f5f833981810160405281019061003291906101ae565b600160008190555084600160006101000a81548173ffffffffffffffffffffffffffffffffffffffff021916908373ffffffffffffffffffffffffffffffffffffffff16021790555083600260006101000a81548173ffffffffffffffffffffffffffffffffffffffff021916908373ffffffffffffffffffffffffffffffffffffffff16021790555082600360006101000a81548173ffffffffffffffffffffffffffffffffffffffff021916908373ffffffffffffffffffffffffffffffffffffffff16021790555081600481905550806005819055505050505050610229565b600080fd5b600073ffffffffffffffffffffffffffffffffffffffff82169050919050565b60006101458261011a565b9050919050565b6101558161013a565b811461016057600080fd5b50565b6000815190506101728161014c565b92915050565b6000819050919050565b61018b81610178565b811461019657600080fd5b50565b6000815190506101a881610182565b92915050565b600080600080600060a086880312156101ca576101c9610115565b5b60006101d888828901610163565b95505060206101e988828901610163565b94505060406101fa88828901610163565b935050606061020b88828901610199565b925050608061021c88828901610199565b9150509295509295909350565b613d27806102386000396000f3fe608060405234801561001057600080fd5b50600436106101425760003560e01c80637d984d5f116100b8578063a694fc3a1161007c578063a694fc3a1461035b578063c3dfdae614610377578063e2eb41ff14610395578063ea14a509146103c6578063f01f20df146103e2578063f8b0f5b61461040057610142565b80637d984d5f1461029857806388c3ffb0146102b65780638c65c81f146102eb5780638f42d71a146103215780639cbe5efd1461033d57610142565b80633cea70d91161010a5780633cea70d9146101d7578063476f64b7146101f5578063650b872514610211578063722cedb71461022d578063776e11dd1461024b57806378bdab4d1461027c57610142565b8063072ea61c1461014757806324bfc7671461016557806329430c55146101815780632e17de781461019d578063313dab20146101b9575b600080fd5b61014f61041c565b60405161015c9190612768565b60405180910390f35b61017f600480360381019061017a9190612812565b610422565b005b61019b60048036038101906101969190612865565b6109a5565b005b6101b760048036038101906101b291906128a5565b610bfd565b005b6101c1610e1b565b6040516101ce9190612768565b60405180910390f35b6101df610e21565b6040516101ec91906128e1565b60405180910390f35b61020f600480360381019061020a9190612812565b610e47565b005b61022b600480360381019061022691906128a5565b6111cc565b005b61023561190e565b60405161024291906128e1565b60405180910390f35b610265600480360381019061026091906128a5565b611934565b604051610273929190612a78565b60405180910390f35b61029660048036038101906102919190612ae5565b611ac0565b005b6102a0611d1d565b6040516102ad9190612b25565b60405180910390f35b6102d060048036038101906102cb91906128a5565b611e18565b6040516102e296959493929190612b62565b60405180910390f35b610305600480360381019061030091906128a5565b611e79565b6040516103189796959493929190612bc3565b60405180910390f35b61033b60048036038101906103369190612c32565b611ec8565b005b61034561219b565b6040516103529190612768565b60405180910390f35b610375600480360381019061037091906128a5565b6121a1565b005b61037f61233c565b60405161038c9190612d0c565b60405180910390f35b6103af60048036038101906103aa9190612d27565b612362565b6040516103bd929190612d54565b60405180910390f35b6103e060048036038101906103db91906128a5565b612386565b005b6103ea61249b565b6040516103f79190612768565b60405180910390f35b61041a60048036038101906104159190612ae5565b6124a1565b005b60045481565b61042a6126ff565b81600260009054906101000a900473ffffffffffffffffffffffffffffffffffffffff1673ffffffffffffffffffffffffffffffffffffffff163373ffffffffffffffffffffffffffffffffffffffff1614806104b257508073ffffffffffffffffffffffffffffffffffffffff163373ffffffffffffffffffffffffffffffffffffffff16145b6104f1576040517f08c379a00000000000000000000000000000000000000000000000000000000081526004016104e890612dda565b60405180910390fd5b60006006600086815260200190815260200160002090508060060160009054906101000a900460ff161561055a576040517f08c379a000000000000000000000000000000000000000000000000000000000815260040161055190612e46565b60405180910390fd5b806003015443106105a0576040517f08c379a000000000000000000000000000000000000000000000000000000000815260040161059790612eb2565b60405180910390fd5b80600001548160080180549050106105ed576040517f08c379a00000000000000000000000000000000000000000000000000000000081526004016105e490612f1e565b60405180910390fd5b600454836105fb9190612f6d565b600760008673ffffffffffffffffffffffffffffffffffffffff1673ffffffffffffffffffffffffffffffffffffffff16815260200190815260200160002060000154101561067f576040517f08c379a000000000000000000000000000000000000000000000000000000000815260040161067690612fed565b60405180910390fd5b8060050154838260070160008773ffffffffffffffffffffffffffffffffffffffff1673ffffffffffffffffffffffffffffffffffffffff168152602001908152602001600020546106d19190612f6d565b1115610712576040517f08c379a000000000000000000000000000000000000000000000000000000000815260040161070990613059565b60405180910390fd5b600454836107209190612f6d565b600760008673ffffffffffffffffffffffffffffffffffffffff1673ffffffffffffffffffffffffffffffffffffffff16815260200190815260200160002060000160008282546107719190613079565b9250508190555082600760008673ffffffffffffffffffffffffffffffffffffffff1673ffffffffffffffffffffffffffffffffffffffff16815260200190815260200160002060010160008282546107ca9190612f6d565b92505081905550600454600960008282546107e59190612f6d565b9250508190555060008160070160008673ffffffffffffffffffffffffffffffffffffffff1673ffffffffffffffffffffffffffffffffffffffff168152602001908152602001600020540361089b5780600801849080600181540180825580915050600190039060005260206000200160009091909190916101000a81548173ffffffffffffffffffffffffffffffffffffffff021916908373ffffffffffffffffffffffffffffffffffffffff1602179055505b828160070160008673ffffffffffffffffffffffffffffffffffffffff1673ffffffffffffffffffffffffffffffffffffffff16815260200190815260200160002060008282546108ec9190612f6d565b92505081905550828160040160008282546109079190612f6d565b92505081905550848473ffffffffffffffffffffffffffffffffffffffff167f69709081123af56c2184b84e5245901e6402d49bb0824856edf7935871adea15856040516109559190612768565b60405180910390a37f14d09c0cd06f0c57ad8c7c33f12276caa9a2e176797cd0adc2edeefee10e99a160095460405161098e9190612768565b60405180910390a150506109a0612745565b505050565b600360009054906101000a900473ffffffffffffffffffffffffffffffffffffffff1673ffffffffffffffffffffffffffffffffffffffff163373ffffffffffffffffffffffffffffffffffffffff1614610a35576040517f08c379a0000000000000000000000000000000000000000000000000000000008152600401610a2c906130f9565b60405180910390fd5b600954811115610a7a576040517f08c379a0000000000000000000000000000000000000000000000000000000008152600401610a7190613165565b60405180910390fd5b8060096000828254610a8c9190613079565b92505081905550600160009054906101000a900473ffffffffffffffffffffffffffffffffffffffff1673ffffffffffffffffffffffffffffffffffffffff1663a9059cbb83836040518363ffffffff1660e01b8152600401610af0929190613185565b6020604051808303816000875af1158015610b0f573d6000803e3d6000fd5b505050506040513d601f19601f82011682018060405250810190610b3391906131da565b610b72576040517f08c379a0000000000000000000000000000000000000000000000000000000008152600401610b6990613253565b60405180910390fd5b8173ffffffffffffffffffffffffffffffffffffffff167fbb0ffbaca8d9b3f50ce6232f80a3acd883de0227a51e9da1908d203bc3ffa6c682604051610bb89190612768565b60405180910390a27f14d09c0cd06f0c57ad8c7c33f12276caa9a2e176797cd0adc2edeefee10e99a1600954604051610bf19190612768565b60405180910390a15050565b610c056126ff565b80600760003373ffffffffffffffffffffffffffffffffffffffff1673ffffffffffffffffffffffffffffffffffffffff168152602001908152602001600020600001541015610c8a576040517f08c379a0000000000000000000000000000000000000000000000000000000008152600401610c8190612fed565b60405180910390fd5b80600760003373ffffffffffffffffffffffffffffffffffffffff1673ffffffffffffffffffffffffffffffffffffffff1681526020019081526020016000206000016000828254610cdc9190613079565b92505081905550600160009054906101000a900473ffffffffffffffffffffffffffffffffffffffff1673ffffffffffffffffffffffffffffffffffffffff1663a9059cbb33836040518363ffffffff1660e01b8152600401610d40929190613185565b6020604051808303816000875af1158015610d5f573d6000803e3d6000fd5b505050506040513d601f19601f82011682018060405250810190610d8391906131da565b610dc2576040517f08c379a0000000000000000000000000000000000000000000000000000000008152600401610db9906132bf565b60405180910390fd5b3373ffffffffffffffffffffffffffffffffffffffff167f0f5bb82176feb1b5e747e28471aa92156a04d9f3ab9f45f28e2d704232b93f7582604051610e089190612768565b60405180910390a2610e18612745565b50565b60095481565b600360009054906101000a900473ffffffffffffffffffffffffffffffffffffffff1681565b610e4f6126ff565b81600260009054906101000a900473ffffffffffffffffffffffffffffffffffffffff1673ffffffffffffffffffffffffffffffffffffffff163373ffffffffffffffffffffffffffffffffffffffff161480610ed757508073ffffffffffffffffffffffffffffffffffffffff163373ffffffffffffffffffffffffffffffffffffffff16145b610f16576040517f08c379a0000000000000000000000000000000000000000000000000000000008152600401610f0d90612dda565b60405180910390fd5b60006006600086815260200190815260200160002090508060060160009054906101000a900460ff1615610f7f576040517f08c379a0000000000000000000000000000000000000000000000000000000008152600401610f7690612e46565b60405180910390fd5b80600301544310610fc5576040517f08c379a0000000000000000000000000000000000000000000000000000000008152600401610fbc90612eb2565b60405180910390fd5b828160070160008673ffffffffffffffffffffffffffffffffffffffff1673ffffffffffffffffffffffffffffffffffffffff168152602001908152602001600020541015611049576040517f08c379a00000000000000000000000000000000000000000000000000000000081526004016110409061332b565b60405180910390fd5b828160070160008673ffffffffffffffffffffffffffffffffffffffff1673ffffffffffffffffffffffffffffffffffffffff168152602001908152602001600020600082825461109a9190613079565b92505081905550828160040160008282546110b59190613079565b9250508190555082600760008673ffffffffffffffffffffffffffffffffffffffff1673ffffffffffffffffffffffffffffffffffffffff168152602001908152602001600020600101600082825461110e9190613079565b9250508190555082600760008673ffffffffffffffffffffffffffffffffffffffff1673ffffffffffffffffffffffffffffffffffffffff16815260200190815260200160002060000160008282546111679190612f6d565b92505081905550848473ffffffffffffffffffffffffffffffffffffffff167f7b2aab217d59212ed84e1fa51038e4e5d7cb2a67163f2322f335682ecad1cf70856040516111b59190612768565b60405180910390a350506111c7612745565b505050565b6111d46126ff565b60006006600083815260200190815260200160002090508060060160009054906101000a900460ff161561123d576040517f08c379a000000000000000000000000000000000000000000000000000000000815260040161123490612e46565b60405180910390fd5b8060030154431015611284576040517f08c379a000000000000000000000000000000000000000000000000000000000815260040161127b90613397565b60405180910390fd5b60008160080180548060200260200160405190810160405280929190818152602001828054801561130a57602002820191906000526020600020905b8160009054906101000a900473ffffffffffffffffffffffffffffffffffffffff1673ffffffffffffffffffffffffffffffffffffffff16815260200190600101908083116112c0575b505050505090506000815167ffffffffffffffff81111561132e5761132d6133b7565b5b60405190808252806020026020018201604052801561135c5781602001602082028036833780820191505090505b50905082600101548360040154106115f457600060648460020154856004015461138691906133e6565b6113909190613457565b905060008460040154826113a49190613079565b90508060095410156113eb576040517f08c379a00000000000000000000000000000000000000000000000000000000081526004016113e2906134fa565b60405180910390fd5b80600960008282546113fd9190613079565b9250508190555060005b84518110156115765760008582815181106114255761142461351a565b5b6020026020010151905060008760070160008373ffffffffffffffffffffffffffffffffffffffff1673ffffffffffffffffffffffffffffffffffffffff16815260200190815260200160002054905060008860040154868361148891906133e6565b6114929190613457565b9050808785815181106114a8576114a761351a565b5b60200260200101818152505081600760008573ffffffffffffffffffffffffffffffffffffffff1673ffffffffffffffffffffffffffffffffffffffff16815260200190815260200160002060010160008282546115069190613079565b9250508190555080600760008573ffffffffffffffffffffffffffffffffffffffff1673ffffffffffffffffffffffffffffffffffffffff168152602001908152602001600020600001600082825461155f9190612f6d565b925050819055505050508080600101915050611407565b50857fdc9e7aec23307fb2a81e7c61cbb3389e845b96ec92371c198b12164ef5af60e986600801856040516115ac929190613681565b60405180910390a27f14d09c0cd06f0c57ad8c7c33f12276caa9a2e176797cd0adc2edeefee10e99a16009546040516115e59190612768565b60405180910390a150506118e3565b60005b836008018054905081101561186b57600083828151811061161b5761161a61351a565b5b6020026020010151905060008560070160008373ffffffffffffffffffffffffffffffffffffffff1673ffffffffffffffffffffffffffffffffffffffff16815260200190815260200160002054905060008484815181106116805761167f61351a565b5b60200260200101818152505080600760008473ffffffffffffffffffffffffffffffffffffffff1673ffffffffffffffffffffffffffffffffffffffff16815260200190815260200160002060010160008282546116de9190613079565b9250508190555060006064600554836116f791906133e6565b6117019190613457565b9050600081836117119190613079565b9050600160009054906101000a900473ffffffffffffffffffffffffffffffffffffffff1673ffffffffffffffffffffffffffffffffffffffff1663a9059cbb6000846040518363ffffffff1660e01b8152600401611771929190613185565b6020604051808303816000875af1158015611790573d6000803e3d6000fd5b505050506040513d601f19601f820116820180604052508101906117b491906131da565b6117f3576040517f08c379a00000000000000000000000000000000000000000000000000000000081526004016117ea90613717565b60405180910390fd5b8373ffffffffffffffffffffffffffffffffffffffff167ffd38818f5291bf0bb3a2a48aadc06ba8757865d1dabd804585338aab3009dcb6836040516118399190612768565b60405180910390a280600960008282546118539190612f6d565b925050819055505050505080806001019150506115f7565b50837fdc9e7aec23307fb2a81e7c61cbb3389e845b96ec92371c198b12164ef5af60e984600801836040516118a1929190613783565b60405180910390a27f14d09c0cd06f0c57ad8c7c33f12276caa9a2e176797cd0adc2edeefee10e99a16009546040516118da9190612768565b60405180910390a15b60018360060160006101000a81548160ff02191690831515021790555050505061190b612745565b50565b600260009054906101000a900473ffffffffffffffffffffffffffffffffffffffff1681565b6060806000600660008581526020019081526020016000209050806008018054806020026020016040519081016040528092919081815260200182805480156119d257602002820191906000526020600020905b8160009054906101000a900473ffffffffffffffffffffffffffffffffffffffff1673ffffffffffffffffffffffffffffffffffffffff1681526020019060010190808311611988575b50505050509250825167ffffffffffffffff8111156119f4576119f36133b7565b5b604051908082528060200260200182016040528015611a225781602001602082028036833780820191505090505b50915060005b8351811015611ab957816007016000858381518110611a4a57611a4961351a565b5b602002602001015173ffffffffffffffffffffffffffffffffffffffff1673ffffffffffffffffffffffffffffffffffffffff16815260200190815260200160002054838281518110611aa057611a9f61351a565b5b6020026020010181815250508080600101915050611a28565b5050915091565b600260009054906101000a900473ffffffffffffffffffffffffffffffffffffffff1673ffffffffffffffffffffffffffffffffffffffff163373ffffffffffffffffffffffffffffffffffffffff1614611b50576040517f08c379a0000000000000000000000000000000000000000000000000000000008152600401611b4790613819565b60405180910390fd5b60006006600084815260200190815260200160002090508060060160009054906101000a900460ff1615611bb9576040517f08c379a0000000000000000000000000000000000000000000000000000000008152600401611bb090612e46565b60405180910390fd5b80600301544310611bff576040517f08c379a0000000000000000000000000000000000000000000000000000000008152600401611bf690612eb2565b60405180910390fd5b6000808312611c3a576064838360010154611c1a91906133e6565b611c249190613457565b8260010154611c339190612f6d565b9050611c93565b600083611c4690613839565b905060006064828560010154611c5c91906133e6565b611c669190613457565b905080846001015411611c7d578360010154611c8e565b808460010154611c8d9190613079565b5b925050505b60008111611cd6576040517f08c379a0000000000000000000000000000000000000000000000000000000008152600401611ccd906138cd565b60405180910390fd5b808260010181905550837f0dee95c5d69b6b5eed7b280d0c8a8813be6e51e116dd7a11e7f3a8cfd971b81e82604051611d0f9190612768565b60405180910390a250505050565b6060600060085467ffffffffffffffff811115611d3d57611d3c6133b7565b5b604051908082528060200260200182016040528015611d6b5781602001602082028036833780820191505090505b509050600080600190505b6008548111611e0c576006600082815260200190815260200160002060060160009054906101000a900460ff16158015611dc55750600660008281526020019081526020016000206003015443105b15611df95780838381518110611dde57611ddd61351a565b5b6020026020010181815250508180611df5906138ed565b9250505b8080611e04906138ed565b915050611d76565b50808252819250505090565b6000806000806000806000600660008981526020019081526020016000209050806000015481600101548260020154836003015484600401548560060160009054906101000a900460ff169650965096509650965096505091939550919395565b60066020528060005260406000206000915090508060000154908060010154908060020154908060030154908060040154908060050154908060060160009054906101000a900460ff16905087565b600260009054906101000a900473ffffffffffffffffffffffffffffffffffffffff1673ffffffffffffffffffffffffffffffffffffffff163373ffffffffffffffffffffffffffffffffffffffff1614611f58576040517f08c379a0000000000000000000000000000000000000000000000000000000008152600401611f4f90613819565b60405180910390fd5b438211611f9a576040517f08c379a0000000000000000000000000000000000000000000000000000000008152600401611f9190613981565b60405180910390fd5b6064831015611fde576040517f08c379a0000000000000000000000000000000000000000000000000000000008152600401611fd5906139ed565b60405180910390fd5b60008511612021576040517f08c379a000000000000000000000000000000000000000000000000000000000815260040161201890613a59565b60405180910390fd5b60008411612064576040517f08c379a000000000000000000000000000000000000000000000000000000000815260040161205b906138cd565b60405180910390fd5b600081116120a7576040517f08c379a000000000000000000000000000000000000000000000000000000000815260040161209e90613ac5565b60405180910390fd5b8381866120b491906133e6565b10156120f5576040517f08c379a00000000000000000000000000000000000000000000000000000000081526004016120ec90613b57565b60405180910390fd5b60086000815480929190612108906138ed565b9190505550600060066000600854815260200190815260200160002090508581600001819055508481600101819055508381600201819055508281600301819055508181600501819055506008547f9de43849eca848bc561bc5cb7a33e6fd7adf171800b0a18c07e7371d8cb823118787878760405161218b9493929190613b77565b60405180910390a2505050505050565b60085481565b6121a96126ff565b600160009054906101000a900473ffffffffffffffffffffffffffffffffffffffff1673ffffffffffffffffffffffffffffffffffffffff166323b872dd3330846040518463ffffffff1660e01b815260040161220893929190613bbc565b6020604051808303816000875af1158015612227573d6000803e3d6000fd5b505050506040513d601f19601f8201168201806040525081019061224b91906131da565b61228a576040517f08c379a0000000000000000000000000000000000000000000000000000000008152600401612281906132bf565b60405180910390fd5b80600760003373ffffffffffffffffffffffffffffffffffffffff1673ffffffffffffffffffffffffffffffffffffffff16815260200190815260200160002060000160008282546122dc9190612f6d565b925050819055503373ffffffffffffffffffffffffffffffffffffffff167f9e71bc8eea02a63969f509818f2dafb9254532904319f9dbda79b67bd34a5f3d826040516123299190612768565b60405180910390a2612339612745565b50565b600160009054906101000a900473ffffffffffffffffffffffffffffffffffffffff1681565b60076020528060005260406000206000915090508060000154908060010154905082565b600360009054906101000a900473ffffffffffffffffffffffffffffffffffffffff1673ffffffffffffffffffffffffffffffffffffffff163373ffffffffffffffffffffffffffffffffffffffff1614612416576040517f08c379a000000000000000000000000000000000000000000000000000000000815260040161240d906130f9565b60405180910390fd5b606481111561245a576040517f08c379a000000000000000000000000000000000000000000000000000000000815260040161245190613c65565b60405180910390fd5b806005819055507f7a3fe257b566b28f2bbf7a5ef480eb4d1ea161667d07eae36c7aa4124907b4eb816040516124909190612768565b60405180910390a150565b60055481565b600260009054906101000a900473ffffffffffffffffffffffffffffffffffffffff1673ffffffffffffffffffffffffffffffffffffffff163373ffffffffffffffffffffffffffffffffffffffff1614612531576040517f08c379a000000000000000000000000000000000000000000000000000000000815260040161252890613819565b60405180910390fd5b60006006600084815260200190815260200160002090508060060160009054906101000a900460ff161561259a576040517f08c379a000000000000000000000000000000000000000000000000000000000815260040161259190612e46565b60405180910390fd5b806003015443106125e0576040517f08c379a00000000000000000000000000000000000000000000000000000000081526004016125d790612eb2565b60405180910390fd5b600080831261261b5760648383600201546125fb91906133e6565b6126059190613457565b82600201546126149190612f6d565b9050612674565b60008361262790613839565b90506000606482856002015461263d91906133e6565b6126479190613457565b90508084600201541161265e57836002015461266f565b80846002015461266e9190613079565b5b925050505b60648110156126b8576040517f08c379a00000000000000000000000000000000000000000000000000000000081526004016126af90613cd1565b60405180910390fd5b808260020181905550837f8e6a7473039567f705c34fad8320a19661e51b956496277d6659df7f0385ee00826040516126f19190612768565b60405180910390a250505050565b60026000540361273b576040517f3ee5aeb500000000000000000000000000000000000000000000000000000000815260040160405180910390fd5b6002600081905550565b6001600081905550565b6000819050919050565b6127628161274f565b82525050565b600060208201905061277d6000830184612759565b92915050565b600080fd5b6127918161274f565b811461279c57600080fd5b50565b6000813590506127ae81612788565b92915050565b600073ffffffffffffffffffffffffffffffffffffffff82169050919050565b60006127df826127b4565b9050919050565b6127ef816127d4565b81146127fa57600080fd5b50565b60008135905061280c816127e6565b92915050565b60008060006060848603121561282b5761282a612783565b5b60006128398682870161279f565b935050602061284a868287016127fd565b925050604061285b8682870161279f565b9150509250925092565b6000806040838503121561287c5761287b612783565b5b600061288a858286016127fd565b925050602061289b8582860161279f565b9150509250929050565b6000602082840312156128bb576128ba612783565b5b60006128c98482850161279f565b91505092915050565b6128db816127d4565b82525050565b60006020820190506128f660008301846128d2565b92915050565b600081519050919050565b600082825260208201905092915050565b6000819050602082019050919050565b612931816127d4565b82525050565b60006129438383612928565b60208301905092915050565b6000602082019050919050565b6000612967826128fc565b6129718185612907565b935061297c83612918565b8060005b838110156129ad5781516129948882612937565b975061299f8361294f565b925050600181019050612980565b5085935050505092915050565b600081519050919050565b600082825260208201905092915050565b6000819050602082019050919050565b6129ef8161274f565b82525050565b6000612a0183836129e6565b60208301905092915050565b6000602082019050919050565b6000612a25826129ba565b612a2f81856129c5565b9350612a3a836129d6565b8060005b83811015612a6b578151612a5288826129f5565b9750612a5d83612a0d565b925050600181019050612a3e565b5085935050505092915050565b60006040820190508181036000830152612a92818561295c565b90508181036020830152612aa68184612a1a565b90509392505050565b6000819050919050565b612ac281612aaf565b8114612acd57600080fd5b50565b600081359050612adf81612ab9565b92915050565b60008060408385031215612afc57612afb612783565b5b6000612b0a8582860161279f565b9250506020612b1b85828601612ad0565b9150509250929050565b60006020820190508181036000830152612b3f8184612a1a565b905092915050565b60008115159050919050565b612b5c81612b47565b82525050565b600060c082019050612b776000830189612759565b612b846020830188612759565b612b916040830187612759565b612b9e6060830186612759565b612bab6080830185612759565b612bb860a0830184612b53565b979650505050505050565b600060e082019050612bd8600083018a612759565b612be56020830189612759565b612bf26040830188612759565b612bff6060830187612759565b612c0c6080830186612759565b612c1960a0830185612759565b612c2660c0830184612b53565b98975050505050505050565b600080600080600060a08688031215612c4e57612c4d612783565b5b6000612c5c8882890161279f565b9550506020612c6d8882890161279f565b9450506040612c7e8882890161279f565b9350506060612c8f8882890161279f565b9250506080612ca08882890161279f565b9150509295509295909350565b6000819050919050565b6000612cd2612ccd612cc8846127b4565b612cad565b6127b4565b9050919050565b6000612ce482612cb7565b9050919050565b6000612cf682612cd9565b9050919050565b612d0681612ceb565b82525050565b6000602082019050612d216000830184612cfd565b92915050565b600060208284031215612d3d57612d3c612783565b5b6000612d4b848285016127fd565b91505092915050565b6000604082019050612d696000830185612759565b612d766020830184612759565b9392505050565b600082825260208201905092915050565b7f556e617574686f72697a65640000000000000000000000000000000000000000600082015250565b6000612dc4600c83612d7d565b9150612dcf82612d8e565b602082019050919050565b60006020820190508181036000830152612df381612db7565b9050919050565b7f526f756e6420616c7265616479207265736f6c76656400000000000000000000600082015250565b6000612e30601683612d7d565b9150612e3b82612dfa565b602082019050919050565b60006020820190508181036000830152612e5f81612e23565b9050919050565b7f526f756e64206578706972656400000000000000000000000000000000000000600082015250565b6000612e9c600d83612d7d565b9150612ea782612e66565b602082019050919050565b60006020820190508181036000830152612ecb81612e8f565b9050919050565b7f526f756e642066756c6c00000000000000000000000000000000000000000000600082015250565b6000612f08600a83612d7d565b9150612f1382612ed2565b602082019050919050565b60006020820190508181036000830152612f3781612efb565b9050919050565b7f4e487b7100000000000000000000000000000000000000000000000000000000600052601160045260246000fd5b6000612f788261274f565b9150612f838361274f565b9250828201905080821115612f9b57612f9a612f3e565b5b92915050565b7f496e73756666696369656e7420617661696c61626c65207374616b6573000000600082015250565b6000612fd7601d83612d7d565b9150612fe282612fa1565b602082019050919050565b6000602082019050818103600083015261300681612fca565b9050919050565b7f45786365656473207065722d706c61796572207374616b652063617000000000600082015250565b6000613043601c83612d7d565b915061304e8261300d565b602082019050919050565b6000602082019050818103600083015261307281613036565b9050919050565b60006130848261274f565b915061308f8361274f565b92508282039050818111156130a7576130a6612f3e565b5b92915050565b7f4f6e6c79207472656173757279206d616e6167657220616c6c6f776564000000600082015250565b60006130e3601d83612d7d565b91506130ee826130ad565b602082019050919050565b60006020820190508181036000830152613112816130d6565b9050919050565b7f496e73756666696369656e742074726561737572792062616c616e6365000000600082015250565b600061314f601d83612d7d565b915061315a82613119565b602082019050919050565b6000602082019050818103600083015261317e81613142565b9050919050565b600060408201905061319a60008301856128d2565b6131a76020830184612759565b9392505050565b6131b781612b47565b81146131c257600080fd5b50565b6000815190506131d4816131ae565b92915050565b6000602082840312156131f0576131ef612783565b5b60006131fe848285016131c5565b91505092915050565b7f496e766573746d656e74207472616e73666572206661696c6564000000000000600082015250565b600061323d601a83612d7d565b915061324882613207565b602082019050919050565b6000602082019050818103600083015261326c81613230565b9050919050565b7f5472616e73666572206661696c65640000000000000000000000000000000000600082015250565b60006132a9600f83612d7d565b91506132b482613273565b602082019050919050565b600060208201905081810360008301526132d88161329c565b9050919050565b7f496e73756666696369656e74207374616b6520696e20726f756e640000000000600082015250565b6000613315601b83612d7d565b9150613320826132df565b602082019050919050565b6000602082019050818103600083015261334481613308565b9050919050565b7f526f756e64206e6f742065787069726564000000000000000000000000000000600082015250565b6000613381601183612d7d565b915061338c8261334b565b602082019050919050565b600060208201905081810360008301526133b081613374565b9050919050565b7f4e487b7100000000000000000000000000000000000000000000000000000000600052604160045260246000fd5b60006133f18261274f565b91506133fc8361274f565b925082820261340a8161274f565b9150828204841483151761342157613420612f3e565b5b5092915050565b7f4e487b7100000000000000000000000000000000000000000000000000000000600052601260045260246000fd5b60006134628261274f565b915061346d8361274f565b92508261347d5761347c613428565b5b828204905092915050565b7f496e73756666696369656e742074726561737572792062616c616e636520666f60008201527f7220726577617264730000000000000000000000000000000000000000000000602082015250565b60006134e4602983612d7d565b91506134ef82613488565b604082019050919050565b60006020820190508181036000830152613513816134d7565b9050919050565b7f4e487b7100000000000000000000000000000000000000000000000000000000600052603260045260246000fd5b7f5448524553484f4c445f4d455400000000000000000000000000000000000000600082015250565b600061357f600d83612d7d565b915061358a82613549565b602082019050919050565b600081549050919050565b60008190508160005260206000209050919050565b60008160001c9050919050565b600073ffffffffffffffffffffffffffffffffffffffff82169050919050565b60006135f56135f0836135b5565b6135c2565b9050919050565b600061360882546135e2565b9050919050565b6000600182019050919050565b600061362782613595565b6136318185612907565b935061363c836135a0565b8060005b8381101561367457613651826135fc565b61365b8882612937565b97506136668361360f565b925050600181019050613640565b5085935050505092915050565b6000606082019050818103600083015261369a81613572565b905081810360208301526136ae818561361c565b905081810360408301526136c28184612a1a565b90509392505050565b7f4275726e207472616e73666572206661696c6564000000000000000000000000600082015250565b6000613701601483612d7d565b915061370c826136cb565b602082019050919050565b60006020820190508181036000830152613730816136f4565b9050919050565b7f5448524553484f4c445f4e4f545f4d4554000000000000000000000000000000600082015250565b600061376d601183612d7d565b915061377882613737565b602082019050919050565b6000606082019050818103600083015261379c81613760565b905081810360208301526137b0818561361c565b905081810360408301526137c48184612a1a565b90509392505050565b7f4f6e6c7920686f7374206167656e7420616c6c6f776564000000000000000000600082015250565b6000613803601783612d7d565b915061380e826137cd565b602082019050919050565b60006020820190508181036000830152613832816137f6565b9050919050565b600061384482612aaf565b91507f8000000000000000000000000000000000000000000000000000000000000000820361387657613875612f3e565b5b816000039050919050565b7f496e76616c6964207468726573686f6c64000000000000000000000000000000600082015250565b60006138b7601183612d7d565b91506138c282613881565b602082019050919050565b600060208201905081810360008301526138e6816138aa565b9050919050565b60006138f88261274f565b91507fffffffffffffffffffffffffffffffffffffffffffffffffffffffffffffffff820361392a57613929612f3e565b5b600182019050919050565b7f496e76616c69642065787069727920626c6f636b000000000000000000000000600082015250565b600061396b601483612d7d565b915061397682613935565b602082019050919050565b6000602082019050818103600083015261399a8161395e565b9050919050565b7f496e76616c6964206d756c7469706c6965720000000000000000000000000000600082015250565b60006139d7601283612d7d565b91506139e2826139a1565b602082019050919050565b60006020820190508181036000830152613a06816139ca565b9050919050565b7f496e76616c696420706c6179657220636f756e74000000000000000000000000600082015250565b6000613a43601483612d7d565b9150613a4e82613a0d565b602082019050919050565b60006020820190508181036000830152613a7281613a36565b9050919050565b7f496e76616c6964206d6178207374616b652070657220706c6179657200000000600082015250565b6000613aaf601c83612d7d565b9150613aba82613a79565b602082019050919050565b60006020820190508181036000830152613ade81613aa2565b9050919050565b7f5468726573686f6c6420746f6f206869676820666f7220616c6c6f776564207360008201527f74616b6573000000000000000000000000000000000000000000000000000000602082015250565b6000613b41602583612d7d565b9150613b4c82613ae5565b604082019050919050565b60006020820190508181036000830152613b7081613b34565b9050919050565b6000608082019050613b8c6000830187612759565b613b996020830186612759565b613ba66040830185612759565b613bb36060830184612759565b95945050505050565b6000606082019050613bd160008301866128d2565b613bde60208301856128d2565b613beb6040830184612759565b949350505050565b7f4275726e2070657263656e74616765206d757374206e6f74206578636565642060008201527f3130300000000000000000000000000000000000000000000000000000000000602082015250565b6000613c4f602383612d7d565b9150613c5a82613bf3565b604082019050919050565b60006020820190508181036000830152613c7e81613c42565b9050919050565b7f4d756c7469706c696572206d757374206265206174206c656173742031303000600082015250565b6000613cbb601f83612d7d565b9150613cc682613c85565b602082019050919050565b60006020820190508181036000830152613cea81613cae565b905091905056fea2646970667358221220edd25306bb156fc194cee712d92e922586faae7b3801c594847a7da3187a345064736f6c634300081c0033",
  "linkReferences": {},
  "deployedLinkReferences": {}
}