{
  "_format": "hh-sol-artifact-1",
  "contractName": "StakingContract",
  "sourceName": "contracts/StakingContract.sol",
  "abi": [
    {
      "inputs": [
        {
          "internalType": "address",
          "name": "_gameToken",
          "type": "address"
        },
        {
          "internalType": "address",
          "name": "_hostAgent",
          "type": "address"
        },
        {
          "internalType": "address",
          "name": "_treasuryManager",
          "type": "address"
        },
        {
          "internalType": "uint256",
          "name": "_entryFee",
          "type": "uint256"
        },
        {
          "internalType": "uint256",
          "name": "_burnPercentage",
          "type": "uint256"
        }
      ],
      "stateMutability": "nonpayable",
      "type": "constructor"
    },
    {
      "inputs": [],
      "name": "ReentrancyGuardReentrantCall",
      "type": "error"
    },
    {
      "anonymous": false,
      "inputs": [
        {
          "indexed": false,
          "internalType": "uint256",
          "name": "newBurnPercentage",
          "type": "uint256"
        }
      ],
      "name": "BurnPercentageUpdated",
      "type": "event"
    },
    {
      "anonymous": false,
      "inputs": [
        {
          "indexed": false,
          "internalType": "uint256",
          "name": "amount",
          "type": "uint256"
        },
        {
          "indexed": true,
          "internalType": "address",
          "name": "to",
          "type": "address"
        }
      ],
      "name": "Investment",
      "type": "event"
    },
    {
      "anonymous": false,
      "inputs": [
        {
          "indexed": true,
          "internalType": "uint256",
          "name": "roundId",
          "type": "uint256"
        },
        {
          "indexed": false,
          "internalType": "uint256",
          "name": "playerCount",
          "type": "uint256"
        },
        {
          "indexed": false,
          "internalType": "uint256",
          "name": "threshold",
          "type": "uint256"
        },
        {
          "indexed": false,
          "internalType": "uint256",
          "name": "multiplier",
          "type": "uint256"
        },
        {
          "indexed": false,
          "internalType": "uint256",
          "name": "expiryBlock",
          "type": "uint256"
        }
      ],
      "name": "RoundInitialized",
      "type": "event"
    },
    {
      "anonymous": false,
      "inputs": [
        {
          "indexed": true,
          "internalType": "uint256",
          "name": "roundId",
          "type": "uint256"
        },
        {
          "indexed": false,
          "internalType": "uint256",
          "name": "newMultiplier",
          "type": "uint256"
        }
      ],
      "name": "RoundMultiplierAdjusted",
      "type": "event"
    },
    {
      "anonymous": false,
      "inputs": [
        {
          "indexed": true,
          "internalType": "uint256",
          "name": "roundId",
          "type": "uint256"
        },
        {
          "indexed": false,
          "internalType": "string",
          "name": "resolution",
          "type": "string"
        },
        {
          "indexed": false,
          "internalType": "address[]",
          "name": "players",
          "type": "address[]"
        },
        {
          "indexed": false,
          "internalType": "uint256[]",
          "name": "distributions",
          "type": "uint256[]"
        }
      ],
      "name": "RoundResolved",
      "type": "event"
    },
    {
      "anonymous": false,
      "inputs": [
        {
          "indexed": true,
          "internalType": "uint256",
          "name": "roundId",
          "type": "uint256"
        },
        {
          "indexed": false,
          "internalType": "uint256",
          "name": "newThreshold",
          "type": "uint256"
        }
      ],
      "name": "RoundThresholdAdjusted",
      "type": "event"
    },
    {
      "anonymous": false,
      "inputs": [
        {
          "indexed": true,
          "internalType": "address",
          "name": "user",
          "type": "address"
        },
        {
          "indexed": false,
          "internalType": "uint256",
          "name": "amount",
          "type": "uint256"
        }
      ],
      "name": "Staked",
      "type": "event"
    },
    {
      "anonymous": false,
      "inputs": [
        {
          "indexed": true,
          "internalType": "address",
          "name": "user",
          "type": "address"
        },
        {
          "indexed": false,
          "internalType": "uint256",
          "name": "amount",
          "type": "uint256"
        }
      ],
      "name": "TokensBurned",
      "type": "event"
    },
    {
      "anonymous": false,
      "inputs": [
        {
          "indexed": false,
          "internalType": "uint256",
          "name": "newBalance",
          "type": "uint256"
        }
      ],
      "name": "TreasuryBalanceChange",
      "type": "event"
    },
    {
      "anonymous": false,
      "inputs": [
        {
          "indexed": true,
          "internalType": "address",
          "name": "user",
          "type": "address"
        },
        {
          "indexed": false,
          "internalType": "uint256",
          "name": "amount",
          "type": "uint256"
        }
      ],
      "name": "Unstaked",
      "type": "event"
    },
    {
      "anonymous": false,
      "inputs": [
        {
          "indexed": true,
          "internalType": "address",
          "name": "user",
          "type": "address"
        },
        {
          "indexed": true,
          "internalType": "uint256",
          "name": "roundId",
          "type": "uint256"
        },
        {
          "indexed": false,
          "internalType": "uint256",
          "name": "amount",
          "type": "uint256"
        }
      ],
      "name": "UserEnteredRound",
      "type": "event"
    },
    {
      "anonymous": false,
      "inputs": [
        {
          "indexed": true,
          "internalType": "address",
          "name": "user",
          "type": "address"
        },
        {
          "indexed": true,
          "internalType": "uint256",
          "name": "roundId",
          "type": "uint256"
        },
        {
          "indexed": false,
          "internalType": "uint256",
          "name": "amount",
          "type": "uint256"
        }
      ],
      "name": "UserExitedRound",
      "type": "event"
    },
    {
      "inputs": [
        {
          "internalType": "uint256",
          "name": "roundId",
          "type": "uint256"
        },
        {
          "internalType": "int256",
          "name": "multiplierDeltaPercent",
          "type": "int256"
        }
      ],
      "name": "adjustRoundMultiplier",
      "outputs": [],
      "stateMutability": "nonpayable",
      "type": "function"
    },
    {
      "inputs": [
        {
          "internalType": "uint256",
          "name": "roundId",
          "type": "uint256"
        },
        {
          "internalType": "int256",
          "name": "thresholdDeltaPercent",
          "type": "int256"
        }
      ],
      "name": "adjustRoundThreshold",
      "outputs": [],
      "stateMutability": "nonpayable",
      "type": "function"
    },
    {
      "inputs": [],
      "name": "burnPercentage",
      "outputs": [
        {
          "internalType": "uint256",
          "name": "",
          "type": "uint256"
        }
      ],
      "stateMutability": "view",
      "type": "function"
    },
    {
      "inputs": [],
      "name": "currentRoundId",
      "outputs": [
        {
          "internalType": "uint256",
          "name": "",
          "type": "uint256"
        }
      ],
      "stateMutability": "view",
      "type": "function"
    },
    {
      "inputs": [
        {
          "internalType": "uint256",
          "name": "roundId",
          "type": "uint256"
        },
        {
          "internalType": "address",
          "name": "player",
          "type": "address"
        },
        {
          "internalType": "uint256",
          "name": "amount",
          "type": "uint256"
        }
      ],
      "name": "enterRound",
      "outputs": [],
      "stateMutability": "nonpayable",
      "type": "function"
    },
    {
      "inputs": [],
      "name": "entryFee",
      "outputs": [
        {
          "internalType": "uint256",
          "name": "",
          "type": "uint256"
        }
      ],
      "stateMutability": "view",
      "type": "function"
    },
    {
      "inputs": [
        {
          "internalType": "uint256",
          "name": "roundId",
          "type": "uint256"
        },
        {
          "internalType": "address",
          "name": "player",
          "type": "address"
        },
        {
          "internalType": "uint256",
          "name": "amount",
          "type": "uint256"
        }
      ],
      "name": "exitRound",
      "outputs": [],
      "stateMutability": "nonpayable",
      "type": "function"
    },
    {
      "inputs": [],
      "name": "gameToken",
      "outputs": [
        {
          "internalType": "contract IERC20",
          "name": "",
          "type": "address"
        }
      ],
      "stateMutability": "view",
      "type": "function"
    },
    {
      "inputs": [],
      "name": "getActiveRounds",
      "outputs": [
        {
          "internalType": "uint256[]",
          "name": "",
          "type": "uint256[]"
        }
      ],
      "stateMutability": "view",
      "type": "function"
    },
    {
      "inputs": [
        {
          "internalType": "uint256",
          "name": "roundId",
          "type": "uint256"
        }
      ],
      "name": "getRoundInfo",
      "outputs": [
        {
          "internalType": "uint256",
          "name": "maxPlayerCount",
          "type": "uint256"
        },
        {
          "internalType": "uint256",
          "name": "threshold",
          "type": "uint256"
        },
        {
          "internalType": "uint256",
          "name": "multiplier",
          "type": "uint256"
        },
        {
          "internalType": "uint256",
          "name": "expiryBlockNumber",
          "type": "uint256"
        },
        {
          "internalType": "uint256",
          "name": "totalStaked",
          "type": "uint256"
        },
        {
          "internalType": "bool",
          "name": "isResolved",
          "type": "bool"
        }
      ],
      "stateMutability": "view",
      "type": "function"
    },
    {
      "inputs": [
        {
          "internalType": "uint256",
          "name": "roundId",
          "type": "uint256"
        }
      ],
      "name": "getRoundPlayers",
      "outputs": [
        {
          "internalType": "address[]",
          "name": "addresses",
          "type": "address[]"
        },
        {
          "internalType": "uint256[]",
          "name": "stakes",
          "type": "uint256[]"
        }
      ],
      "stateMutability": "view",
      "type": "function"
    },
    {
      "inputs": [],
      "name": "hostAgent",
      "outputs": [
        {
          "internalType": "address",
          "name": "",
          "type": "address"
        }
      ],
      "stateMutability": "view",
      "type": "function"
    },
    {
      "inputs": [
        {
          "internalType": "uint256",
          "name": "maxPlayerCount",
          "type": "uint256"
        },
        {
          "internalType": "uint256",
          "name": "threshold",
          "type": "uint256"
        },
        {
          "internalType": "uint256",
          "name": "multiplier",
          "type": "uint256"
        },
        {
          "internalType": "uint256",
          "name": "expiryBlock",
          "type": "uint256"
        }
      ],
      "name": "initializeRound",
      "outputs": [],
      "stateMutability": "nonpayable",
      "type": "function"
    },
    {
      "inputs": [
        {
          "internalType": "address",
          "name": "project",
          "type": "address"
        },
        {
          "internalType": "uint256",
          "name": "amount",
          "type": "uint256"
        }
      ],
      "name": "investDeSci",
      "outputs": [],
      "stateMutability": "nonpayable",
      "type": "function"
    },
    {
      "inputs": [
        {
          "internalType": "address",
          "name": "",
          "type": "address"
        }
      ],
      "name": "players",
      "outputs": [
        {
          "internalType": "uint256",
          "name": "availableStakes",
          "type": "uint256"
        },
        {
          "internalType": "uint256",
          "name": "unavailableStakes",
          "type": "uint256"
        }
      ],
      "stateMutability": "view",
      "type": "function"
    },
    {
      "inputs": [
        {
          "internalType": "uint256",
          "name": "roundId",
          "type": "uint256"
        }
      ],
      "name": "resolveRound",
      "outputs": [],
      "stateMutability": "nonpayable",
      "type": "function"
    },
    {
      "inputs": [
        {
          "internalType": "uint256",
          "name": "",
          "type": "uint256"
        }
      ],
      "name": "rounds",
      "outputs": [
        {
          "internalType": "uint256",
          "name": "maxPlayerCount",
          "type": "uint256"
        },
        {
          "internalType": "uint256",
          "name": "threshold",
          "type": "uint256"
        },
        {
          "internalType": "uint256",
          "name": "multiplier",
          "type": "uint256"
        },
        {
          "internalType": "uint256",
          "name": "expiryBlockNumber",
          "type": "uint256"
        },
        {
          "internalType": "uint256",
          "name": "totalStaked",
          "type": "uint256"
        },
        {
          "internalType": "bool",
          "name": "isResolved",
          "type": "bool"
        }
      ],
      "stateMutability": "view",
      "type": "function"
    },
    {
      "inputs": [
        {
          "internalType": "uint256",
          "name": "amount",
          "type": "uint256"
        }
      ],
      "name": "stake",
      "outputs": [],
      "stateMutability": "nonpayable",
      "type": "function"
    },
    {
      "inputs": [],
      "name": "treasuryBalance",
      "outputs": [
        {
          "internalType": "uint256",
          "name": "",
          "type": "uint256"
        }
      ],
      "stateMutability": "view",
      "type": "function"
    },
    {
      "inputs": [],
      "name": "treasuryManager",
      "outputs": [
        {
          "internalType": "address",
          "name": "",
          "type": "address"
        }
      ],
      "stateMutability": "view",
      "type": "function"
    },
    {
      "inputs": [
        {
          "internalType": "uint256",
          "name": "amount",
          "type": "uint256"
        }
      ],
      "name": "unstake",
      "outputs": [],
      "stateMutability": "nonpayable",
      "type": "function"
    },
    {
      "inputs": [
        {
          "internalType": "uint256",
          "name": "_burnPercentage",
          "type": "uint256"
        }
      ],
      "name": "updateBurnPercentage",
      "outputs": [],
      "stateMutability": "nonpayable",
      "type": "function"
    }
  ],
  "bytecode": "0x608060405234801561001057600080fd5b50604051613b45380380613b45833981810160405281019061003291906101ae565b600160008190555084600160006101000a81548173ffffffffffffffffffffffffffffffffffffffff021916908373ffffffffffffffffffffffffffffffffffffffff16021790555083600260006101000a81548173ffffffffffffffffffffffffffffffffffffffff021916908373ffffffffffffffffffffffffffffffffffffffff16021790555082600360006101000a81548173ffffffffffffffffffffffffffffffffffffffff021916908373ffffffffffffffffffffffffffffffffffffffff16021790555081600481905550806005819055505050505050610229565b600080fd5b600073ffffffffffffffffffffffffffffffffffffffff82169050919050565b60006101458261011a565b9050919050565b6101558161013a565b811461016057600080fd5b50565b6000815190506101728161014c565b92915050565b6000819050919050565b61018b81610178565b811461019657600080fd5b50565b6000815190506101a881610182565b92915050565b600080600080600060a086880312156101ca576101c9610115565b5b60006101d888828901610163565b95505060206101e988828901610163565b94505060406101fa88828901610163565b935050606061020b88828901610199565b925050608061021c88828901610199565b9150509295509295909350565b61390d806102386000396000f3fe608060405234801561001057600080fd5b50600436106101425760003560e01c806378bdab4d116100b8578063a694fc3a1161007c578063a694fc3a1461035a578063c3dfdae614610376578063e2eb41ff14610394578063ea14a509146103c5578063f01f20df146103e1578063f8b0f5b6146103ff57610142565b806378bdab4d146102985780637d984d5f146102b457806388c3ffb0146102d25780638c65c81f146103075780639cbe5efd1461033c57610142565b8063313dab201161010a578063313dab20146101d55780633cea70d9146101f3578063476f64b714610211578063650b87251461022d578063722cedb714610249578063776e11dd1461026757610142565b8063072ea61c146101475780631940ec201461016557806324bfc7671461018157806329430c551461019d5780632e17de78146101b9575b600080fd5b61014f61041b565b60405161015c9190612627565b60405180910390f35b61017f600480360381019061017a9190612673565b610421565b005b61019b60048036038101906101969190612738565b610659565b005b6101b760048036038101906101b2919061278b565b610b49565b005b6101d360048036038101906101ce91906127cb565b610da1565b005b6101dd610fbf565b6040516101ea9190612627565b60405180910390f35b6101fb610fc5565b6040516102089190612807565b60405180910390f35b61022b60048036038101906102269190612738565b610feb565b005b610247600480360381019061024291906127cb565b611370565b005b610251611aa6565b60405161025e9190612807565b60405180910390f35b610281600480360381019061027c91906127cb565b611acc565b60405161028f92919061299e565b60405180910390f35b6102b260048036038101906102ad9190612a0b565b611c58565b005b6102bc611eb5565b6040516102c99190612a4b565b60405180910390f35b6102ec60048036038101906102e791906127cb565b611fb0565b6040516102fe96959493929190612a88565b60405180910390f35b610321600480360381019061031c91906127cb565b612011565b60405161033396959493929190612a88565b60405180910390f35b61034461205a565b6040516103519190612627565b60405180910390f35b610374600480360381019061036f91906127cb565b612060565b005b61037e6121fb565b60405161038b9190612b48565b60405180910390f35b6103ae60048036038101906103a99190612b63565b612221565b6040516103bc929190612b90565b60405180910390f35b6103df60048036038101906103da91906127cb565b612245565b005b6103e961235a565b6040516103f69190612627565b60405180910390f35b61041960048036038101906104149190612a0b565b612360565b005b60045481565b600260009054906101000a900473ffffffffffffffffffffffffffffffffffffffff1673ffffffffffffffffffffffffffffffffffffffff163373ffffffffffffffffffffffffffffffffffffffff16146104b1576040517f08c379a00000000000000000000000000000000000000000000000000000000081526004016104a890612c16565b60405180910390fd5b4381116104f3576040517f08c379a00000000000000000000000000000000000000000000000000000000081526004016104ea90612c82565b60405180910390fd5b6064821015610537576040517f08c379a000000000000000000000000000000000000000000000000000000000815260040161052e90612cee565b60405180910390fd5b6000841161057a576040517f08c379a000000000000000000000000000000000000000000000000000000000815260040161057190612d5a565b60405180910390fd5b600083116105bd576040517f08c379a00000000000000000000000000000000000000000000000000000000081526004016105b490612dc6565b60405180910390fd5b600860008154809291906105d090612e15565b9190505550600060066000600854815260200190815260200160002090508481600001819055508381600101819055508281600201819055508181600301819055506008547f9de43849eca848bc561bc5cb7a33e6fd7adf171800b0a18c07e7371d8cb823118686868660405161064a9493929190612e5d565b60405180910390a25050505050565b6106616125be565b81600260009054906101000a900473ffffffffffffffffffffffffffffffffffffffff1673ffffffffffffffffffffffffffffffffffffffff163373ffffffffffffffffffffffffffffffffffffffff1614806106e957508073ffffffffffffffffffffffffffffffffffffffff163373ffffffffffffffffffffffffffffffffffffffff16145b610728576040517f08c379a000000000000000000000000000000000000000000000000000000000815260040161071f90612eee565b60405180910390fd5b60006006600086815260200190815260200160002090508060050160009054906101000a900460ff1615610791576040517f08c379a000000000000000000000000000000000000000000000000000000000815260040161078890612f5a565b60405180910390fd5b806003015443106107d7576040517f08c379a00000000000000000000000000000000000000000000000000000000081526004016107ce90612fc6565b60405180910390fd5b8060000154816007018054905010610824576040517f08c379a000000000000000000000000000000000000000000000000000000000815260040161081b90613032565b60405180910390fd5b600454836108329190613052565b600760008673ffffffffffffffffffffffffffffffffffffffff1673ffffffffffffffffffffffffffffffffffffffff1681526020019081526020016000206000015410156108b6576040517f08c379a00000000000000000000000000000000000000000000000000000000081526004016108ad906130d2565b60405180910390fd5b600454836108c49190613052565b600760008673ffffffffffffffffffffffffffffffffffffffff1673ffffffffffffffffffffffffffffffffffffffff168152602001908152602001600020600001600082825461091591906130f2565b9250508190555082600760008673ffffffffffffffffffffffffffffffffffffffff1673ffffffffffffffffffffffffffffffffffffffff168152602001908152602001600020600101600082825461096e9190613052565b92505081905550600454600960008282546109899190613052565b9250508190555060008160060160008673ffffffffffffffffffffffffffffffffffffffff1673ffffffffffffffffffffffffffffffffffffffff1681526020019081526020016000205403610a3f5780600701849080600181540180825580915050600190039060005260206000200160009091909190916101000a81548173ffffffffffffffffffffffffffffffffffffffff021916908373ffffffffffffffffffffffffffffffffffffffff1602179055505b828160060160008673ffffffffffffffffffffffffffffffffffffffff1673ffffffffffffffffffffffffffffffffffffffff1681526020019081526020016000206000828254610a909190613052565b9250508190555082816004016000828254610aab9190613052565b92505081905550848473ffffffffffffffffffffffffffffffffffffffff167f69709081123af56c2184b84e5245901e6402d49bb0824856edf7935871adea1585604051610af99190612627565b60405180910390a37f14d09c0cd06f0c57ad8c7c33f12276caa9a2e176797cd0adc2edeefee10e99a1600954604051610b329190612627565b60405180910390a15050610b44612604565b505050565b600360009054906101000a900473ffffffffffffffffffffffffffffffffffffffff1673ffffffffffffffffffffffffffffffffffffffff163373ffffffffffffffffffffffffffffffffffffffff1614610bd9576040517f08c379a0000000000000000000000000000000000000000000000000000000008152600401610bd090613172565b60405180910390fd5b600954811115610c1e576040517f08c379a0000000000000000000000000000000000000000000000000000000008152600401610c15906131de565b60405180910390fd5b8060096000828254610c3091906130f2565b92505081905550600160009054906101000a900473ffffffffffffffffffffffffffffffffffffffff1673ffffffffffffffffffffffffffffffffffffffff1663a9059cbb83836040518363ffffffff1660e01b8152600401610c949291906131fe565b6020604051808303816000875af1158015610cb3573d6000803e3d6000fd5b505050506040513d601f19601f82011682018060405250810190610cd79190613253565b610d16576040517f08c379a0000000000000000000000000000000000000000000000000000000008152600401610d0d906132cc565b60405180910390fd5b8173ffffffffffffffffffffffffffffffffffffffff167fbb0ffbaca8d9b3f50ce6232f80a3acd883de0227a51e9da1908d203bc3ffa6c682604051610d5c9190612627565b60405180910390a27f14d09c0cd06f0c57ad8c7c33f12276caa9a2e176797cd0adc2edeefee10e99a1600954604051610d959190612627565b60405180910390a15050565b610da96125be565b80600760003373ffffffffffffffffffffffffffffffffffffffff1673ffffffffffffffffffffffffffffffffffffffff168152602001908152602001600020600001541015610e2e576040517f08c379a0000000000000000000000000000000000000000000000000000000008152600401610e25906130d2565b60405180910390fd5b80600760003373ffffffffffffffffffffffffffffffffffffffff1673ffffffffffffffffffffffffffffffffffffffff1681526020019081526020016000206000016000828254610e8091906130f2565b92505081905550600160009054906101000a900473ffffffffffffffffffffffffffffffffffffffff1673ffffffffffffffffffffffffffffffffffffffff1663a9059cbb33836040518363ffffffff1660e01b8152600401610ee49291906131fe565b6020604051808303816000875af1158015610f03573d6000803e3d6000fd5b505050506040513d601f19601f82011682018060405250810190610f279190613253565b610f66576040517f08c379a0000000000000000000000000000000000000000000000000000000008152600401610f5d90613338565b60405180910390fd5b3373ffffffffffffffffffffffffffffffffffffffff167f0f5bb82176feb1b5e747e28471aa92156a04d9f3ab9f45f28e2d704232b93f7582604051610fac9190612627565b60405180910390a2610fbc612604565b50565b60095481565b600360009054906101000a900473ffffffffffffffffffffffffffffffffffffffff1681565b610ff36125be565b81600260009054906101000a900473ffffffffffffffffffffffffffffffffffffffff1673ffffffffffffffffffffffffffffffffffffffff163373ffffffffffffffffffffffffffffffffffffffff16148061107b57508073ffffffffffffffffffffffffffffffffffffffff163373ffffffffffffffffffffffffffffffffffffffff16145b6110ba576040517f08c379a00000000000000000000000000000000000000000000000000000000081526004016110b190612eee565b60405180910390fd5b60006006600086815260200190815260200160002090508060050160009054906101000a900460ff1615611123576040517f08c379a000000000000000000000000000000000000000000000000000000000815260040161111a90612f5a565b60405180910390fd5b80600301544310611169576040517f08c379a000000000000000000000000000000000000000000000000000000000815260040161116090612fc6565b60405180910390fd5b828160060160008673ffffffffffffffffffffffffffffffffffffffff1673ffffffffffffffffffffffffffffffffffffffff1681526020019081526020016000205410156111ed576040517f08c379a00000000000000000000000000000000000000000000000000000000081526004016111e4906133a4565b60405180910390fd5b828160060160008673ffffffffffffffffffffffffffffffffffffffff1673ffffffffffffffffffffffffffffffffffffffff168152602001908152602001600020600082825461123e91906130f2565b925050819055508281600401600082825461125991906130f2565b9250508190555082600760008673ffffffffffffffffffffffffffffffffffffffff1673ffffffffffffffffffffffffffffffffffffffff16815260200190815260200160002060010160008282546112b291906130f2565b9250508190555082600760008673ffffffffffffffffffffffffffffffffffffffff1673ffffffffffffffffffffffffffffffffffffffff168152602001908152602001600020600001600082825461130b9190613052565b92505081905550848473ffffffffffffffffffffffffffffffffffffffff167f7b2aab217d59212ed84e1fa51038e4e5d7cb2a67163f2322f335682ecad1cf70856040516113599190612627565b60405180910390a3505061136b612604565b505050565b6113786125be565b60006006600083815260200190815260200160002090508060050160009054906101000a900460ff16156113e1576040517f08c379a00000000000000000000000000000000000000000000000000000000081526004016113d890612f5a565b60405180910390fd5b8060030154431015611428576040517f08c379a000000000000000000000000000000000000000000000000000000000815260040161141f90613410565b60405180910390fd5b60018160050160006101000a81548160ff0219169083151502179055506000816007018054806020026020016040519081016040528092919081815260200182805480156114cb57602002820191906000526020600020905b8160009054906101000a900473ffffffffffffffffffffffffffffffffffffffff1673ffffffffffffffffffffffffffffffffffffffff1681526020019060010190808311611481575b505050505090506000815167ffffffffffffffff8111156114ef576114ee613430565b5b60405190808252806020026020018201604052801561151d5781602001602082028036833780820191505090505b50905082600101548360040154106117b2576000606484600201548560040154611547919061345f565b61155191906134d0565b9050600084600401548261156591906130f2565b90508060095410156115ac576040517f08c379a00000000000000000000000000000000000000000000000000000000081526004016115a390613573565b60405180910390fd5b80600960008282546115be91906130f2565b9250508190555060005b84518110156117375760008582815181106115e6576115e5613593565b5b6020026020010151905060008760060160008373ffffffffffffffffffffffffffffffffffffffff1673ffffffffffffffffffffffffffffffffffffffff168152602001908152602001600020549050600088600401548683611649919061345f565b61165391906134d0565b90508087858151811061166957611668613593565b5b60200260200101818152505081600760008573ffffffffffffffffffffffffffffffffffffffff1673ffffffffffffffffffffffffffffffffffffffff16815260200190815260200160002060010160008282546116c791906130f2565b9250508190555080600760008573ffffffffffffffffffffffffffffffffffffffff1673ffffffffffffffffffffffffffffffffffffffff16815260200190815260200160002060000160008282546117209190613052565b9250508190555050505080806001019150506115c8565b50857fdc9e7aec23307fb2a81e7c61cbb3389e845b96ec92371c198b12164ef5af60e9858560405161176a92919061360e565b60405180910390a27f14d09c0cd06f0c57ad8c7c33f12276caa9a2e176797cd0adc2edeefee10e99a16009546040516117a39190612627565b60405180910390a15050611a98565b60005b8251811015611a235760008382815181106117d3576117d2613593565b5b6020026020010151905060008560060160008373ffffffffffffffffffffffffffffffffffffffff1673ffffffffffffffffffffffffffffffffffffffff168152602001908152602001600020549050600084848151811061183857611837613593565b5b60200260200101818152505080600760008473ffffffffffffffffffffffffffffffffffffffff1673ffffffffffffffffffffffffffffffffffffffff168152602001908152602001600020600101600082825461189691906130f2565b9250508190555060006064600554836118af919061345f565b6118b991906134d0565b9050600081836118c991906130f2565b9050600160009054906101000a900473ffffffffffffffffffffffffffffffffffffffff1673ffffffffffffffffffffffffffffffffffffffff1663a9059cbb6000846040518363ffffffff1660e01b81526004016119299291906131fe565b6020604051808303816000875af1158015611948573d6000803e3d6000fd5b505050506040513d601f19601f8201168201806040525081019061196c9190613253565b6119ab576040517f08c379a00000000000000000000000000000000000000000000000000000000081526004016119a2906136a4565b60405180910390fd5b8373ffffffffffffffffffffffffffffffffffffffff167ffd38818f5291bf0bb3a2a48aadc06ba8757865d1dabd804585338aab3009dcb6836040516119f19190612627565b60405180910390a28060096000828254611a0b9190613052565b925050819055505050505080806001019150506117b5565b50837fdc9e7aec23307fb2a81e7c61cbb3389e845b96ec92371c198b12164ef5af60e98383604051611a56929190613710565b60405180910390a27f14d09c0cd06f0c57ad8c7c33f12276caa9a2e176797cd0adc2edeefee10e99a1600954604051611a8f9190612627565b60405180910390a15b505050611aa3612604565b50565b600260009054906101000a900473ffffffffffffffffffffffffffffffffffffffff1681565b606080600060066000858152602001908152602001600020905080600701805480602002602001604051908101604052809291908181526020018280548015611b6a57602002820191906000526020600020905b8160009054906101000a900473ffffffffffffffffffffffffffffffffffffffff1673ffffffffffffffffffffffffffffffffffffffff1681526020019060010190808311611b20575b50505050509250825167ffffffffffffffff811115611b8c57611b8b613430565b5b604051908082528060200260200182016040528015611bba5781602001602082028036833780820191505090505b50915060005b8351811015611c5157816006016000858381518110611be257611be1613593565b5b602002602001015173ffffffffffffffffffffffffffffffffffffffff1673ffffffffffffffffffffffffffffffffffffffff16815260200190815260200160002054838281518110611c3857611c37613593565b5b6020026020010181815250508080600101915050611bc0565b5050915091565b600260009054906101000a900473ffffffffffffffffffffffffffffffffffffffff1673ffffffffffffffffffffffffffffffffffffffff163373ffffffffffffffffffffffffffffffffffffffff1614611ce8576040517f08c379a0000000000000000000000000000000000000000000000000000000008152600401611cdf90612c16565b60405180910390fd5b60006006600084815260200190815260200160002090508060050160009054906101000a900460ff1615611d51576040517f08c379a0000000000000000000000000000000000000000000000000000000008152600401611d4890612f5a565b60405180910390fd5b80600301544310611d97576040517f08c379a0000000000000000000000000000000000000000000000000000000008152600401611d8e90612fc6565b60405180910390fd5b6000808312611dd2576064838360010154611db2919061345f565b611dbc91906134d0565b8260010154611dcb9190613052565b9050611e2b565b600083611dde9061375a565b905060006064828560010154611df4919061345f565b611dfe91906134d0565b905080846001015411611e15578360010154611e26565b808460010154611e2591906130f2565b5b925050505b60008111611e6e576040517f08c379a0000000000000000000000000000000000000000000000000000000008152600401611e6590612dc6565b60405180910390fd5b808260010181905550837f0dee95c5d69b6b5eed7b280d0c8a8813be6e51e116dd7a11e7f3a8cfd971b81e82604051611ea79190612627565b60405180910390a250505050565b6060600060085467ffffffffffffffff811115611ed557611ed4613430565b5b604051908082528060200260200182016040528015611f035781602001602082028036833780820191505090505b509050600080600190505b6008548111611fa4576006600082815260200190815260200160002060050160009054906101000a900460ff16158015611f5d5750600660008281526020019081526020016000206003015443105b15611f915780838381518110611f7657611f75613593565b5b6020026020010181815250508180611f8d90612e15565b9250505b8080611f9c90612e15565b915050611f0e565b50808252819250505090565b6000806000806000806000600660008981526020019081526020016000209050806000015481600101548260020154836003015484600401548560050160009054906101000a900460ff169650965096509650965096505091939550919395565b60066020528060005260406000206000915090508060000154908060010154908060020154908060030154908060040154908060050160009054906101000a900460ff16905086565b60085481565b6120686125be565b600160009054906101000a900473ffffffffffffffffffffffffffffffffffffffff1673ffffffffffffffffffffffffffffffffffffffff166323b872dd3330846040518463ffffffff1660e01b81526004016120c7939291906137a2565b6020604051808303816000875af11580156120e6573d6000803e3d6000fd5b505050506040513d601f19601f8201168201806040525081019061210a9190613253565b612149576040517f08c379a000000000000000000000000000000000000000000000000000000000815260040161214090613338565b60405180910390fd5b80600760003373ffffffffffffffffffffffffffffffffffffffff1673ffffffffffffffffffffffffffffffffffffffff168152602001908152602001600020600001600082825461219b9190613052565b925050819055503373ffffffffffffffffffffffffffffffffffffffff167f9e71bc8eea02a63969f509818f2dafb9254532904319f9dbda79b67bd34a5f3d826040516121e89190612627565b60405180910390a26121f8612604565b50565b600160009054906101000a900473ffffffffffffffffffffffffffffffffffffffff1681565b60076020528060005260406000206000915090508060000154908060010154905082565b600360009054906101000a900473ffffffffffffffffffffffffffffffffffffffff1673ffffffffffffffffffffffffffffffffffffffff163373ffffffffffffffffffffffffffffffffffffffff16146122d5576040517f08c379a00000000000000000000000000000000000000000000000000000000081526004016122cc90613172565b60405180910390fd5b6064811115612319576040517f08c379a00000000000000000000000000000000000000000000000000000000081526004016123109061384b565b60405180910390fd5b806005819055507f7a3fe257b566b28f2bbf7a5ef480eb4d1ea161667d07eae36c7aa4124907b4eb8160405161234f9190612627565b60405180910390a150565b60055481565b600260009054906101000a900473ffffffffffffffffffffffffffffffffffffffff1673ffffffffffffffffffffffffffffffffffffffff163373ffffffffffffffffffffffffffffffffffffffff16146123f0576040517f08c379a00000000000000000000000000000000000000000000000000000000081526004016123e790612c16565b60405180910390fd5b60006006600084815260200190815260200160002090508060050160009054906101000a900460ff1615612459576040517f08c379a000000000000000000000000000000000000000000000000000000000815260040161245090612f5a565b60405180910390fd5b8060030154431061249f576040517f08c379a000000000000000000000000000000000000000000000000000000000815260040161249690612fc6565b60405180910390fd5b60008083126124da5760648383600201546124ba919061345f565b6124c491906134d0565b82600201546124d39190613052565b9050612533565b6000836124e69061375a565b9050600060648285600201546124fc919061345f565b61250691906134d0565b90508084600201541161251d57836002015461252e565b80846002015461252d91906130f2565b5b925050505b6064811015612577576040517f08c379a000000000000000000000000000000000000000000000000000000000815260040161256e906138b7565b60405180910390fd5b808260020181905550837f8e6a7473039567f705c34fad8320a19661e51b956496277d6659df7f0385ee00826040516125b09190612627565b60405180910390a250505050565b6002600054036125fa576040517f3ee5aeb500000000000000000000000000000000000000000000000000000000815260040160405180910390fd5b6002600081905550565b6001600081905550565b6000819050919050565b6126218161260e565b82525050565b600060208201905061263c6000830184612618565b92915050565b600080fd5b6126508161260e565b811461265b57600080fd5b50565b60008135905061266d81612647565b92915050565b6000806000806080858703121561268d5761268c612642565b5b600061269b8782880161265e565b94505060206126ac8782880161265e565b93505060406126bd8782880161265e565b92505060606126ce8782880161265e565b91505092959194509250565b600073ffffffffffffffffffffffffffffffffffffffff82169050919050565b6000612705826126da565b9050919050565b612715816126fa565b811461272057600080fd5b50565b6000813590506127328161270c565b92915050565b60008060006060848603121561275157612750612642565b5b600061275f8682870161265e565b935050602061277086828701612723565b92505060406127818682870161265e565b9150509250925092565b600080604083850312156127a2576127a1612642565b5b60006127b085828601612723565b92505060206127c18582860161265e565b9150509250929050565b6000602082840312156127e1576127e0612642565b5b60006127ef8482850161265e565b91505092915050565b612801816126fa565b82525050565b600060208201905061281c60008301846127f8565b92915050565b600081519050919050565b600082825260208201905092915050565b6000819050602082019050919050565b612857816126fa565b82525050565b6000612869838361284e565b60208301905092915050565b6000602082019050919050565b600061288d82612822565b612897818561282d565b93506128a28361283e565b8060005b838110156128d35781516128ba888261285d565b97506128c583612875565b9250506001810190506128a6565b5085935050505092915050565b600081519050919050565b600082825260208201905092915050565b6000819050602082019050919050565b6129158161260e565b82525050565b6000612927838361290c565b60208301905092915050565b6000602082019050919050565b600061294b826128e0565b61295581856128eb565b9350612960836128fc565b8060005b83811015612991578151612978888261291b565b975061298383612933565b925050600181019050612964565b5085935050505092915050565b600060408201905081810360008301526129b88185612882565b905081810360208301526129cc8184612940565b90509392505050565b6000819050919050565b6129e8816129d5565b81146129f357600080fd5b50565b600081359050612a05816129df565b92915050565b60008060408385031215612a2257612a21612642565b5b6000612a308582860161265e565b9250506020612a41858286016129f6565b9150509250929050565b60006020820190508181036000830152612a658184612940565b905092915050565b60008115159050919050565b612a8281612a6d565b82525050565b600060c082019050612a9d6000830189612618565b612aaa6020830188612618565b612ab76040830187612618565b612ac46060830186612618565b612ad16080830185612618565b612ade60a0830184612a79565b979650505050505050565b6000819050919050565b6000612b0e612b09612b04846126da565b612ae9565b6126da565b9050919050565b6000612b2082612af3565b9050919050565b6000612b3282612b15565b9050919050565b612b4281612b27565b82525050565b6000602082019050612b5d6000830184612b39565b92915050565b600060208284031215612b7957612b78612642565b5b6000612b8784828501612723565b91505092915050565b6000604082019050612ba56000830185612618565b612bb26020830184612618565b9392505050565b600082825260208201905092915050565b7f4f6e6c7920686f7374206167656e7420616c6c6f776564000000000000000000600082015250565b6000612c00601783612bb9565b9150612c0b82612bca565b602082019050919050565b60006020820190508181036000830152612c2f81612bf3565b9050919050565b7f496e76616c69642065787069727920626c6f636b000000000000000000000000600082015250565b6000612c6c601483612bb9565b9150612c7782612c36565b602082019050919050565b60006020820190508181036000830152612c9b81612c5f565b9050919050565b7f496e76616c6964206d756c7469706c6965720000000000000000000000000000600082015250565b6000612cd8601283612bb9565b9150612ce382612ca2565b602082019050919050565b60006020820190508181036000830152612d0781612ccb565b9050919050565b7f496e76616c696420706c6179657220636f756e74000000000000000000000000600082015250565b6000612d44601483612bb9565b9150612d4f82612d0e565b602082019050919050565b60006020820190508181036000830152612d7381612d37565b9050919050565b7f496e76616c6964207468726573686f6c64000000000000000000000000000000600082015250565b6000612db0601183612bb9565b9150612dbb82612d7a565b602082019050919050565b60006020820190508181036000830152612ddf81612da3565b9050919050565b7f4e487b7100000000000000000000000000000000000000000000000000000000600052601160045260246000fd5b6000612e208261260e565b91507fffffffffffffffffffffffffffffffffffffffffffffffffffffffffffffffff8203612e5257612e51612de6565b5b600182019050919050565b6000608082019050612e726000830187612618565b612e7f6020830186612618565b612e8c6040830185612618565b612e996060830184612618565b95945050505050565b7f556e617574686f72697a65640000000000000000000000000000000000000000600082015250565b6000612ed8600c83612bb9565b9150612ee382612ea2565b602082019050919050565b60006020820190508181036000830152612f0781612ecb565b9050919050565b7f526f756e6420616c7265616479207265736f6c76656400000000000000000000600082015250565b6000612f44601683612bb9565b9150612f4f82612f0e565b602082019050919050565b60006020820190508181036000830152612f7381612f37565b9050919050565b7f526f756e64206578706972656400000000000000000000000000000000000000600082015250565b6000612fb0600d83612bb9565b9150612fbb82612f7a565b602082019050919050565b60006020820190508181036000830152612fdf81612fa3565b9050919050565b7f526f756e642066756c6c00000000000000000000000000000000000000000000600082015250565b600061301c600a83612bb9565b915061302782612fe6565b602082019050919050565b6000602082019050818103600083015261304b8161300f565b9050919050565b600061305d8261260e565b91506130688361260e565b92508282019050808211156130805761307f612de6565b5b92915050565b7f496e73756666696369656e7420617661696c61626c65207374616b6573000000600082015250565b60006130bc601d83612bb9565b91506130c782613086565b602082019050919050565b600060208201905081810360008301526130eb816130af565b9050919050565b60006130fd8261260e565b91506131088361260e565b92508282039050818111156131205761311f612de6565b5b92915050565b7f4f6e6c79207472656173757279206d616e6167657220616c6c6f776564000000600082015250565b600061315c601d83612bb9565b915061316782613126565b602082019050919050565b6000602082019050818103600083015261318b8161314f565b9050919050565b7f496e73756666696369656e742074726561737572792062616c616e6365000000600082015250565b60006131c8601d83612bb9565b91506131d382613192565b602082019050919050565b600060208201905081810360008301526131f7816131bb565b9050919050565b600060408201905061321360008301856127f8565b6132206020830184612618565b9392505050565b61323081612a6d565b811461323b57600080fd5b50565b60008151905061324d81613227565b92915050565b60006020828403121561326957613268612642565b5b60006132778482850161323e565b91505092915050565b7f496e766573746d656e74207472616e73666572206661696c6564000000000000600082015250565b60006132b6601a83612bb9565b91506132c182613280565b602082019050919050565b600060208201905081810360008301526132e5816132a9565b9050919050565b7f5472616e73666572206661696c65640000000000000000000000000000000000600082015250565b6000613322600f83612bb9565b915061332d826132ec565b602082019050919050565b6000602082019050818103600083015261335181613315565b9050919050565b7f496e73756666696369656e74207374616b6520696e20726f756e640000000000600082015250565b600061338e601b83612bb9565b915061339982613358565b602082019050919050565b600060208201905081810360008301526133bd81613381565b9050919050565b7f526f756e64206e6f742065787069726564000000000000000000000000000000600082015250565b60006133fa601183612bb9565b9150613405826133c4565b602082019050919050565b60006020820190508181036000830152613429816133ed565b9050919050565b7f4e487b7100000000000000000000000000000000000000000000000000000000600052604160045260246000fd5b600061346a8261260e565b91506134758361260e565b92508282026134838161260e565b9150828204841483151761349a57613499612de6565b5b5092915050565b7f4e487b7100000000000000000000000000000000000000000000000000000000600052601260045260246000fd5b60006134db8261260e565b91506134e68361260e565b9250826134f6576134f56134a1565b5b828204905092915050565b7f496e73756666696369656e742074726561737572792062616c616e636520666f60008201527f7220726577617264730000000000000000000000000000000000000000000000602082015250565b600061355d602983612bb9565b915061356882613501565b604082019050919050565b6000602082019050818103600083015261358c81613550565b9050919050565b7f4e487b7100000000000000000000000000000000000000000000000000000000600052603260045260246000fd5b7f5448524553484f4c445f4d455400000000000000000000000000000000000000600082015250565b60006135f8600d83612bb9565b9150613603826135c2565b602082019050919050565b60006060820190508181036000830152613627816135eb565b9050818103602083015261363b8185612882565b9050818103604083015261364f8184612940565b90509392505050565b7f4275726e207472616e73666572206661696c6564000000000000000000000000600082015250565b600061368e601483612bb9565b915061369982613658565b602082019050919050565b600060208201905081810360008301526136bd81613681565b9050919050565b7f5448524553484f4c445f4e4f545f4d4554000000000000000000000000000000600082015250565b60006136fa601183612bb9565b9150613705826136c4565b602082019050919050565b60006060820190508181036000830152613729816136ed565b9050818103602083015261373d8185612882565b905081810360408301526137518184612940565b90509392505050565b6000613765826129d5565b91507f8000000000000000000000000000000000000000000000000000000000000000820361379757613796612de6565b5b816000039050919050565b60006060820190506137b760008301866127f8565b6137c460208301856127f8565b6137d16040830184612618565b949350505050565b7f4275726e2070657263656e74616765206d757374206e6f74206578636565642060008201527f3130300000000000000000000000000000000000000000000000000000000000602082015250565b6000613835602383612bb9565b9150613840826137d9565b604082019050919050565b6000602082019050818103600083015261386481613828565b9050919050565b7f4d756c7469706c696572206d757374206265206174206c656173742031303000600082015250565b60006138a1601f83612bb9565b91506138ac8261386b565b602082019050919050565b600060208201905081810360008301526138d081613894565b905091905056fea2646970667358221220ab4521744eacb563d050e77e9332444a567c38c413d107421d28132f7a9018df64736f6c634300081c0033",
  "linkReferences": {},
  "deployedLinkReferences": {}
}