{
  "_format": "hh-sol-artifact-1",
  "contractName": "SwapEscrow",
  "sourceName": "contracts/SwapEscrow.sol",
  "abi": [
    {
      "inputs": [
        {
          "internalType": "address",
          "name": "_testNostraToken",
          "type": "address"
        },
        {
          "internalType": "address",
          "name": "_usdcToken",
          "type": "address"
        }
      ],
      "stateMutability": "nonpayable",
      "type": "constructor"
    },
    {
      "inputs": [
        {
          "internalType": "address",
          "name": "owner",
          "type": "address"
        }
      ],
      "name": "OwnableInvalidOwner",
      "type": "error"
    },
    {
      "inputs": [
        {
          "internalType": "address",
          "name": "account",
          "type": "address"
        }
      ],
      "name": "OwnableUnauthorizedAccount",
      "type": "error"
    },
    {
      "anonymous": false,
      "inputs": [
        {
          "indexed": false,
          "internalType": "uint256",
          "name": "usdcAmount",
          "type": "uint256"
        }
      ],
      "name": "EscrowFunded",
      "type": "event"
    },
    {
      "anonymous": false,
      "inputs": [
        {
          "indexed": true,
          "internalType": "address",
          "name": "previousOwner",
          "type": "address"
        },
        {
          "indexed": true,
          "internalType": "address",
          "name": "newOwner",
          "type": "address"
        }
      ],
      "name": "OwnershipTransferred",
      "type": "event"
    },
    {
      "anonymous": false,
      "inputs": [
        {
          "indexed": true,
          "internalType": "address",
          "name": "user",
          "type": "address"
        },
        {
          "indexed": false,
          "internalType": "uint256",
          "name": "tNSTAmount",
          "type": "uint256"
        },
        {
          "indexed": false,
          "internalType": "uint256",
          "name": "usdcReceived",
          "type": "uint256"
        }
      ],
      "name": "TokensSwapped",
      "type": "event"
    },
    {
      "inputs": [],
      "name": "SWAP_RATIO",
      "outputs": [
        {
          "internalType": "uint256",
          "name": "",
          "type": "uint256"
        }
      ],
      "stateMutability": "view",
      "type": "function"
    },
    {
      "inputs": [
        {
          "internalType": "uint256",
          "name": "usdcAmount",
          "type": "uint256"
        }
      ],
      "name": "fundEscrow",
      "outputs": [],
      "stateMutability": "nonpayable",
      "type": "function"
    },
    {
      "inputs": [],
      "name": "getEscrowBalance",
      "outputs": [
        {
          "internalType": "uint256",
          "name": "",
          "type": "uint256"
        }
      ],
      "stateMutability": "view",
      "type": "function"
    },
    {
      "inputs": [],
      "name": "owner",
      "outputs": [
        {
          "internalType": "address",
          "name": "",
          "type": "address"
        }
      ],
      "stateMutability": "view",
      "type": "function"
    },
    {
      "inputs": [],
      "name": "renounceOwnership",
      "outputs": [],
      "stateMutability": "nonpayable",
      "type": "function"
    },
    {
      "inputs": [
        {
          "internalType": "uint256",
          "name": "tNSTAmount",
          "type": "uint256"
        }
      ],
      "name": "swap",
      "outputs": [],
      "stateMutability": "nonpayable",
      "type": "function"
    },
    {
      "inputs": [],
      "name": "testNostraToken",
      "outputs": [
        {
          "internalType": "contract IERC20",
          "name": "",
          "type": "address"
        }
      ],
      "stateMutability": "view",
      "type": "function"
    },
    {
      "inputs": [
        {
          "internalType": "address",
          "name": "newOwner",
          "type": "address"
        }
      ],
      "name": "transferOwnership",
      "outputs": [],
      "stateMutability": "nonpayable",
      "type": "function"
    },
    {
      "inputs": [],
      "name": "usdcToken",
      "outputs": [
        {
          "internalType": "contract IERC20",
          "name": "",
          "type": "address"
        }
      ],
      "stateMutability": "view",
      "type": "function"
    }
  ],
  "bytecode": "0x608060405234801561001057600080fd5b506040516112a63803806112a683398181016040528101906100329190610265565b33600073ffffffffffffffffffffffffffffffffffffffff168173ffffffffffffffffffffffffffffffffffffffff16036100a55760006040517f1e4fbdf700000000000000000000000000000000000000000000000000000000815260040161009c91906102b4565b60405180910390fd5b6100b48161013e60201b60201c565b5081600160006101000a81548173ffffffffffffffffffffffffffffffffffffffff021916908373ffffffffffffffffffffffffffffffffffffffff16021790555080600260006101000a81548173ffffffffffffffffffffffffffffffffffffffff021916908373ffffffffffffffffffffffffffffffffffffffff16021790555050506102cf565b60008060009054906101000a900473ffffffffffffffffffffffffffffffffffffffff169050816000806101000a81548173ffffffffffffffffffffffffffffffffffffffff021916908373ffffffffffffffffffffffffffffffffffffffff1602179055508173ffffffffffffffffffffffffffffffffffffffff168173ffffffffffffffffffffffffffffffffffffffff167f8be0079c531659141344cd1fd0a4f28419497f9722a3daafe3b4186f6b6457e060405160405180910390a35050565b600080fd5b600073ffffffffffffffffffffffffffffffffffffffff82169050919050565b600061023282610207565b9050919050565b61024281610227565b811461024d57600080fd5b50565b60008151905061025f81610239565b92915050565b6000806040838503121561027c5761027b610202565b5b600061028a85828601610250565b925050602061029b85828601610250565b9150509250929050565b6102ae81610227565b82525050565b60006020820190506102c960008301846102a5565b92915050565b610fc8806102de6000396000f3fe608060405234801561001057600080fd5b50600436106100935760003560e01c806394b918de1161006657806394b918de146100fc578063b7f41a1714610118578063c56e610e14610136578063c9c31af514610154578063f2fde38b1461017057610093565b806311eac855146100985780631b7e1b33146100b6578063715018a6146100d45780638da5cb5b146100de575b600080fd5b6100a061018c565b6040516100ad91906109d0565b60405180910390f35b6100be6101b2565b6040516100cb91906109d0565b60405180910390f35b6100dc6101d8565b005b6100e66101ec565b6040516100f39190610a0c565b60405180910390f35b61011660048036038101906101119190610a62565b610215565b005b6101206105ac565b60405161012d9190610a9e565b60405180910390f35b61013e6105b2565b60405161014b9190610a9e565b60405180910390f35b61016e60048036038101906101699190610a62565b610655565b005b61018a60048036038101906101859190610ae5565b610778565b005b600260009054906101000a900473ffffffffffffffffffffffffffffffffffffffff1681565b600160009054906101000a900473ffffffffffffffffffffffffffffffffffffffff1681565b6101e06107fe565b6101ea6000610885565b565b60008060009054906101000a900473ffffffffffffffffffffffffffffffffffffffff16905090565b60008111610258576040517f08c379a000000000000000000000000000000000000000000000000000000000815260040161024f90610b6f565b60405180910390fd5b60006103e8826102689190610bbe565b146102a8576040517f08c379a000000000000000000000000000000000000000000000000000000000815260040161029f90610c61565b60405180910390fd5b60006103e8826102b89190610c81565b905080600260009054906101000a900473ffffffffffffffffffffffffffffffffffffffff1673ffffffffffffffffffffffffffffffffffffffff166370a08231306040518263ffffffff1660e01b81526004016103169190610a0c565b602060405180830381865afa158015610333573d6000803e3d6000fd5b505050506040513d601f19601f820116820180604052508101906103579190610cc7565b1015610398576040517f08c379a000000000000000000000000000000000000000000000000000000000815260040161038f90610d40565b60405180910390fd5b600160009054906101000a900473ffffffffffffffffffffffffffffffffffffffff1673ffffffffffffffffffffffffffffffffffffffff166323b872dd3330856040518463ffffffff1660e01b81526004016103f793929190610d60565b6020604051808303816000875af1158015610416573d6000803e3d6000fd5b505050506040513d601f19601f8201168201806040525081019061043a9190610dcf565b610479576040517f08c379a000000000000000000000000000000000000000000000000000000000815260040161047090610e48565b60405180910390fd5b600260009054906101000a900473ffffffffffffffffffffffffffffffffffffffff1673ffffffffffffffffffffffffffffffffffffffff1663a9059cbb33836040518363ffffffff1660e01b81526004016104d6929190610e68565b6020604051808303816000875af11580156104f5573d6000803e3d6000fd5b505050506040513d601f19601f820116820180604052508101906105199190610dcf565b610558576040517f08c379a000000000000000000000000000000000000000000000000000000000815260040161054f90610edd565b60405180910390fd5b3373ffffffffffffffffffffffffffffffffffffffff167f18704ae982dcd24a1beeeed3ecf045ab0520d7b7519b97adf3e4f40bf7efe33983836040516105a0929190610efd565b60405180910390a25050565b6103e881565b6000600260009054906101000a900473ffffffffffffffffffffffffffffffffffffffff1673ffffffffffffffffffffffffffffffffffffffff166370a08231306040518263ffffffff1660e01b815260040161060f9190610a0c565b602060405180830381865afa15801561062c573d6000803e3d6000fd5b505050506040513d601f19601f820116820180604052508101906106509190610cc7565b905090565b61065d6107fe565b600260009054906101000a900473ffffffffffffffffffffffffffffffffffffffff1673ffffffffffffffffffffffffffffffffffffffff166323b872dd3330846040518463ffffffff1660e01b81526004016106bc93929190610d60565b6020604051808303816000875af11580156106db573d6000803e3d6000fd5b505050506040513d601f19601f820116820180604052508101906106ff9190610dcf565b61073e576040517f08c379a000000000000000000000000000000000000000000000000000000000815260040161073590610f72565b60405180910390fd5b7f3b4f5a74452cddb80ae5a0d279eb7db6afd5e556e72ca2883016b1da7c9d21168160405161076d9190610a9e565b60405180910390a150565b6107806107fe565b600073ffffffffffffffffffffffffffffffffffffffff168173ffffffffffffffffffffffffffffffffffffffff16036107f25760006040517f1e4fbdf70000000000000000000000000000000000000000000000000000000081526004016107e99190610a0c565b60405180910390fd5b6107fb81610885565b50565b610806610949565b73ffffffffffffffffffffffffffffffffffffffff166108246101ec565b73ffffffffffffffffffffffffffffffffffffffff161461088357610847610949565b6040517f118cdaa700000000000000000000000000000000000000000000000000000000815260040161087a9190610a0c565b60405180910390fd5b565b60008060009054906101000a900473ffffffffffffffffffffffffffffffffffffffff169050816000806101000a81548173ffffffffffffffffffffffffffffffffffffffff021916908373ffffffffffffffffffffffffffffffffffffffff1602179055508173ffffffffffffffffffffffffffffffffffffffff168173ffffffffffffffffffffffffffffffffffffffff167f8be0079c531659141344cd1fd0a4f28419497f9722a3daafe3b4186f6b6457e060405160405180910390a35050565b600033905090565b600073ffffffffffffffffffffffffffffffffffffffff82169050919050565b6000819050919050565b600061099661099161098c84610951565b610971565b610951565b9050919050565b60006109a88261097b565b9050919050565b60006109ba8261099d565b9050919050565b6109ca816109af565b82525050565b60006020820190506109e560008301846109c1565b92915050565b60006109f682610951565b9050919050565b610a06816109eb565b82525050565b6000602082019050610a2160008301846109fd565b92915050565b600080fd5b6000819050919050565b610a3f81610a2c565b8114610a4a57600080fd5b50565b600081359050610a5c81610a36565b92915050565b600060208284031215610a7857610a77610a27565b5b6000610a8684828501610a4d565b91505092915050565b610a9881610a2c565b82525050565b6000602082019050610ab36000830184610a8f565b92915050565b610ac2816109eb565b8114610acd57600080fd5b50565b600081359050610adf81610ab9565b92915050565b600060208284031215610afb57610afa610a27565b5b6000610b0984828501610ad0565b91505092915050565b600082825260208201905092915050565b7f416d6f756e74206d7573742062652067726561746572207468616e207a65726f600082015250565b6000610b59602083610b12565b9150610b6482610b23565b602082019050919050565b60006020820190508181036000830152610b8881610b4c565b9050919050565b7f4e487b7100000000000000000000000000000000000000000000000000000000600052601260045260246000fd5b6000610bc982610a2c565b9150610bd483610a2c565b925082610be457610be3610b8f565b5b828206905092915050565b7f416d6f756e74206d7573742062652061206d756c7469706c65206f662073776160008201527f7020726174696f00000000000000000000000000000000000000000000000000602082015250565b6000610c4b602783610b12565b9150610c5682610bef565b604082019050919050565b60006020820190508181036000830152610c7a81610c3e565b9050919050565b6000610c8c82610a2c565b9150610c9783610a2c565b925082610ca757610ca6610b8f565b5b828204905092915050565b600081519050610cc181610a36565b92915050565b600060208284031215610cdd57610cdc610a27565b5b6000610ceb84828501610cb2565b91505092915050565b7f496e73756666696369656e742055534443206c69717569646974790000000000600082015250565b6000610d2a601b83610b12565b9150610d3582610cf4565b602082019050919050565b60006020820190508181036000830152610d5981610d1d565b9050919050565b6000606082019050610d7560008301866109fd565b610d8260208301856109fd565b610d8f6040830184610a8f565b949350505050565b60008115159050919050565b610dac81610d97565b8114610db757600080fd5b50565b600081519050610dc981610da3565b92915050565b600060208284031215610de557610de4610a27565b5b6000610df384828501610dba565b91505092915050565b7f546f6b656e207472616e73666572206661696c65640000000000000000000000600082015250565b6000610e32601583610b12565b9150610e3d82610dfc565b602082019050919050565b60006020820190508181036000830152610e6181610e25565b9050919050565b6000604082019050610e7d60008301856109fd565b610e8a6020830184610a8f565b9392505050565b7f55534443207472616e73666572206661696c6564000000000000000000000000600082015250565b6000610ec7601483610b12565b9150610ed282610e91565b602082019050919050565b60006020820190508181036000830152610ef681610eba565b9050919050565b6000604082019050610f126000830185610a8f565b610f1f6020830184610a8f565b9392505050565b7f46756e64696e67207472616e73666572206661696c6564000000000000000000600082015250565b6000610f5c601783610b12565b9150610f6782610f26565b602082019050919050565b60006020820190508181036000830152610f8b81610f4f565b905091905056fea2646970667358221220a31793803d0f12b7cc0a94a9274400f8bc5909c21351797c7bc424bd2a710b2364736f6c634300081c0033",
  "linkReferences": {},
  "deployedLinkReferences": {}
}