{
  "_format": "hh-sol-artifact-1",
  "contractName": "StakingContract",
  "sourceName": "contracts/StakingContract.sol",
  "abi": [
    {
      "inputs": [
        {
          "internalType": "address",
          "name": "_gameToken",
          "type": "address"
        },
        {
          "internalType": "address",
          "name": "_hostAgent",
          "type": "address"
        },
        {
          "internalType": "address",
          "name": "_treasuryManager",
          "type": "address"
        },
        {
          "internalType": "uint256",
          "name": "_entryFee",
          "type": "uint256"
        },
        {
          "internalType": "uint256",
          "name": "_treasuryFeePercentage",
          "type": "uint256"
        },
        {
          "internalType": "uint256",
          "name": "_prizePoolPercentage",
          "type": "uint256"
        },
        {
          "internalType": "uint256",
          "name": "_burnPercentage",
          "type": "uint256"
        }
      ],
      "stateMutability": "nonpayable",
      "type": "constructor"
    },
    {
      "inputs": [],
      "name": "ReentrancyGuardReentrantCall",
      "type": "error"
    },
    {
      "anonymous": false,
      "inputs": [
        {
          "indexed": false,
          "internalType": "uint256",
          "name": "newEntryFee",
          "type": "uint256"
        },
        {
          "indexed": false,
          "internalType": "uint256",
          "name": "newTreasuryFeePercentage",
          "type": "uint256"
        },
        {
          "indexed": false,
          "internalType": "uint256",
          "name": "newPrizePoolPercentage",
          "type": "uint256"
        }
      ],
      "name": "FeeConfigUpdated",
      "type": "event"
    },
    {
      "anonymous": false,
      "inputs": [
        {
          "indexed": false,
          "internalType": "uint256",
          "name": "amount",
          "type": "uint256"
        },
        {
          "indexed": true,
          "internalType": "address",
          "name": "to",
          "type": "address"
        }
      ],
      "name": "Investment",
      "type": "event"
    },
    {
      "anonymous": false,
      "inputs": [
        {
          "indexed": true,
          "internalType": "uint256",
          "name": "roundId",
          "type": "uint256"
        },
        {
          "indexed": false,
          "internalType": "uint256",
          "name": "playerCount",
          "type": "uint256"
        },
        {
          "indexed": false,
          "internalType": "uint256",
          "name": "threshold",
          "type": "uint256"
        },
        {
          "indexed": false,
          "internalType": "uint256",
          "name": "multiplier",
          "type": "uint256"
        },
        {
          "indexed": false,
          "internalType": "uint256",
          "name": "expiryBlock",
          "type": "uint256"
        }
      ],
      "name": "RoundInitialized",
      "type": "event"
    },
    {
      "anonymous": false,
      "inputs": [
        {
          "indexed": true,
          "internalType": "uint256",
          "name": "roundId",
          "type": "uint256"
        },
        {
          "indexed": false,
          "internalType": "string",
          "name": "resolution",
          "type": "string"
        },
        {
          "indexed": false,
          "internalType": "address[]",
          "name": "players",
          "type": "address[]"
        },
        {
          "indexed": false,
          "internalType": "uint256[]",
          "name": "distributions",
          "type": "uint256[]"
        }
      ],
      "name": "RoundResolved",
      "type": "event"
    },
    {
      "anonymous": false,
      "inputs": [
        {
          "indexed": true,
          "internalType": "address",
          "name": "user",
          "type": "address"
        },
        {
          "indexed": false,
          "internalType": "uint256",
          "name": "amount",
          "type": "uint256"
        }
      ],
      "name": "Staked",
      "type": "event"
    },
    {
      "anonymous": false,
      "inputs": [
        {
          "indexed": true,
          "internalType": "address",
          "name": "user",
          "type": "address"
        },
        {
          "indexed": false,
          "internalType": "uint256",
          "name": "amount",
          "type": "uint256"
        }
      ],
      "name": "TokensBurned",
      "type": "event"
    },
    {
      "anonymous": false,
      "inputs": [
        {
          "indexed": false,
          "internalType": "uint256",
          "name": "newBalance",
          "type": "uint256"
        }
      ],
      "name": "TreasuryBalanceChange",
      "type": "event"
    },
    {
      "anonymous": false,
      "inputs": [
        {
          "indexed": true,
          "internalType": "address",
          "name": "user",
          "type": "address"
        },
        {
          "indexed": false,
          "internalType": "uint256",
          "name": "amount",
          "type": "uint256"
        }
      ],
      "name": "Unstaked",
      "type": "event"
    },
    {
      "anonymous": false,
      "inputs": [
        {
          "indexed": true,
          "internalType": "address",
          "name": "user",
          "type": "address"
        },
        {
          "indexed": true,
          "internalType": "uint256",
          "name": "roundId",
          "type": "uint256"
        },
        {
          "indexed": false,
          "internalType": "uint256",
          "name": "amount",
          "type": "uint256"
        }
      ],
      "name": "UserEnteredRound",
      "type": "event"
    },
    {
      "anonymous": false,
      "inputs": [
        {
          "indexed": true,
          "internalType": "address",
          "name": "user",
          "type": "address"
        },
        {
          "indexed": true,
          "internalType": "uint256",
          "name": "roundId",
          "type": "uint256"
        },
        {
          "indexed": false,
          "internalType": "uint256",
          "name": "amount",
          "type": "uint256"
        }
      ],
      "name": "UserExitedRound",
      "type": "event"
    },
    {
      "inputs": [],
      "name": "burnPercentage",
      "outputs": [
        {
          "internalType": "uint256",
          "name": "",
          "type": "uint256"
        }
      ],
      "stateMutability": "view",
      "type": "function"
    },
    {
      "inputs": [],
      "name": "currentRoundId",
      "outputs": [
        {
          "internalType": "uint256",
          "name": "",
          "type": "uint256"
        }
      ],
      "stateMutability": "view",
      "type": "function"
    },
    {
      "inputs": [
        {
          "internalType": "uint256",
          "name": "roundId",
          "type": "uint256"
        },
        {
          "internalType": "address",
          "name": "player",
          "type": "address"
        },
        {
          "internalType": "uint256",
          "name": "amount",
          "type": "uint256"
        }
      ],
      "name": "enterRound",
      "outputs": [],
      "stateMutability": "nonpayable",
      "type": "function"
    },
    {
      "inputs": [],
      "name": "entryFee",
      "outputs": [
        {
          "internalType": "uint256",
          "name": "",
          "type": "uint256"
        }
      ],
      "stateMutability": "view",
      "type": "function"
    },
    {
      "inputs": [
        {
          "internalType": "uint256",
          "name": "roundId",
          "type": "uint256"
        },
        {
          "internalType": "address",
          "name": "player",
          "type": "address"
        },
        {
          "internalType": "uint256",
          "name": "amount",
          "type": "uint256"
        }
      ],
      "name": "exitRound",
      "outputs": [],
      "stateMutability": "nonpayable",
      "type": "function"
    },
    {
      "inputs": [],
      "name": "gameToken",
      "outputs": [
        {
          "internalType": "contract IERC20",
          "name": "",
          "type": "address"
        }
      ],
      "stateMutability": "view",
      "type": "function"
    },
    {
      "inputs": [],
      "name": "getActiveRounds",
      "outputs": [
        {
          "internalType": "uint256[]",
          "name": "",
          "type": "uint256[]"
        }
      ],
      "stateMutability": "view",
      "type": "function"
    },
    {
      "inputs": [
        {
          "internalType": "uint256",
          "name": "roundId",
          "type": "uint256"
        }
      ],
      "name": "getRoundInfo",
      "outputs": [
        {
          "internalType": "uint256",
          "name": "maxPlayerCount",
          "type": "uint256"
        },
        {
          "internalType": "uint256",
          "name": "threshold",
          "type": "uint256"
        },
        {
          "internalType": "uint256",
          "name": "multiplier",
          "type": "uint256"
        },
        {
          "internalType": "uint256",
          "name": "expiryBlockNumber",
          "type": "uint256"
        },
        {
          "internalType": "uint256",
          "name": "totalStaked",
          "type": "uint256"
        },
        {
          "internalType": "bool",
          "name": "isResolved",
          "type": "bool"
        }
      ],
      "stateMutability": "view",
      "type": "function"
    },
    {
      "inputs": [
        {
          "internalType": "uint256",
          "name": "roundId",
          "type": "uint256"
        }
      ],
      "name": "getRoundPlayers",
      "outputs": [
        {
          "internalType": "address[]",
          "name": "addresses",
          "type": "address[]"
        },
        {
          "internalType": "uint256[]",
          "name": "stakes",
          "type": "uint256[]"
        }
      ],
      "stateMutability": "view",
      "type": "function"
    },
    {
      "inputs": [],
      "name": "hostAgent",
      "outputs": [
        {
          "internalType": "address",
          "name": "",
          "type": "address"
        }
      ],
      "stateMutability": "view",
      "type": "function"
    },
    {
      "inputs": [
        {
          "internalType": "uint256",
          "name": "maxPlayerCount",
          "type": "uint256"
        },
        {
          "internalType": "uint256",
          "name": "threshold",
          "type": "uint256"
        },
        {
          "internalType": "uint256",
          "name": "multiplier",
          "type": "uint256"
        },
        {
          "internalType": "uint256",
          "name": "expiryBlock",
          "type": "uint256"
        }
      ],
      "name": "initializeRound",
      "outputs": [],
      "stateMutability": "nonpayable",
      "type": "function"
    },
    {
      "inputs": [
        {
          "internalType": "address",
          "name": "project",
          "type": "address"
        },
        {
          "internalType": "uint256",
          "name": "amount",
          "type": "uint256"
        }
      ],
      "name": "investDeSci",
      "outputs": [],
      "stateMutability": "nonpayable",
      "type": "function"
    },
    {
      "inputs": [
        {
          "internalType": "address",
          "name": "",
          "type": "address"
        }
      ],
      "name": "players",
      "outputs": [
        {
          "internalType": "uint256",
          "name": "availableStakes",
          "type": "uint256"
        },
        {
          "internalType": "uint256",
          "name": "unavailableStakes",
          "type": "uint256"
        }
      ],
      "stateMutability": "view",
      "type": "function"
    },
    {
      "inputs": [],
      "name": "prizePoolBalance",
      "outputs": [
        {
          "internalType": "uint256",
          "name": "",
          "type": "uint256"
        }
      ],
      "stateMutability": "view",
      "type": "function"
    },
    {
      "inputs": [],
      "name": "prizePoolPercentage",
      "outputs": [
        {
          "internalType": "uint256",
          "name": "",
          "type": "uint256"
        }
      ],
      "stateMutability": "view",
      "type": "function"
    },
    {
      "inputs": [
        {
          "internalType": "uint256",
          "name": "roundId",
          "type": "uint256"
        }
      ],
      "name": "resolveRound",
      "outputs": [],
      "stateMutability": "nonpayable",
      "type": "function"
    },
    {
      "inputs": [
        {
          "internalType": "uint256",
          "name": "",
          "type": "uint256"
        }
      ],
      "name": "rounds",
      "outputs": [
        {
          "internalType": "uint256",
          "name": "maxPlayerCount",
          "type": "uint256"
        },
        {
          "internalType": "uint256",
          "name": "threshold",
          "type": "uint256"
        },
        {
          "internalType": "uint256",
          "name": "multiplier",
          "type": "uint256"
        },
        {
          "internalType": "uint256",
          "name": "expiryBlockNumber",
          "type": "uint256"
        },
        {
          "internalType": "uint256",
          "name": "totalStaked",
          "type": "uint256"
        },
        {
          "internalType": "bool",
          "name": "isResolved",
          "type": "bool"
        }
      ],
      "stateMutability": "view",
      "type": "function"
    },
    {
      "inputs": [
        {
          "internalType": "uint256",
          "name": "amount",
          "type": "uint256"
        }
      ],
      "name": "stake",
      "outputs": [],
      "stateMutability": "nonpayable",
      "type": "function"
    },
    {
      "inputs": [],
      "name": "treasuryBalance",
      "outputs": [
        {
          "internalType": "uint256",
          "name": "",
          "type": "uint256"
        }
      ],
      "stateMutability": "view",
      "type": "function"
    },
    {
      "inputs": [],
      "name": "treasuryFeePercentage",
      "outputs": [
        {
          "internalType": "uint256",
          "name": "",
          "type": "uint256"
        }
      ],
      "stateMutability": "view",
      "type": "function"
    },
    {
      "inputs": [],
      "name": "treasuryManager",
      "outputs": [
        {
          "internalType": "address",
          "name": "",
          "type": "address"
        }
      ],
      "stateMutability": "view",
      "type": "function"
    },
    {
      "inputs": [
        {
          "internalType": "uint256",
          "name": "amount",
          "type": "uint256"
        }
      ],
      "name": "unstake",
      "outputs": [],
      "stateMutability": "nonpayable",
      "type": "function"
    },
    {
      "inputs": [
        {
          "internalType": "uint256",
          "name": "_entryFee",
          "type": "uint256"
        },
        {
          "internalType": "uint256",
          "name": "_treasuryFeePercentage",
          "type": "uint256"
        },
        {
          "internalType": "uint256",
          "name": "_prizePoolPercentage",
          "type": "uint256"
        },
        {
          "internalType": "uint256",
          "name": "_burnPercentage",
          "type": "uint256"
        }
      ],
      "name": "updateFeeConfig",
      "outputs": [],
      "stateMutability": "nonpayable",
      "type": "function"
    }
  ],
  "bytecode": "0x608060405234801561001057600080fd5b506040516138653803806138658339818101604052810190610032919061020c565b60016000819055506064828461004891906102dd565b14610088576040517f08c379a000000000000000000000000000000000000000000000000000000000815260040161007f9061036e565b60405180910390fd5b86600160006101000a81548173ffffffffffffffffffffffffffffffffffffffff021916908373ffffffffffffffffffffffffffffffffffffffff16021790555085600260006101000a81548173ffffffffffffffffffffffffffffffffffffffff021916908373ffffffffffffffffffffffffffffffffffffffff16021790555084600360006101000a81548173ffffffffffffffffffffffffffffffffffffffff021916908373ffffffffffffffffffffffffffffffffffffffff160217905550836004819055508260058190555081600681905550806007819055505050505050505061038e565b600080fd5b600073ffffffffffffffffffffffffffffffffffffffff82169050919050565b60006101a382610178565b9050919050565b6101b381610198565b81146101be57600080fd5b50565b6000815190506101d0816101aa565b92915050565b6000819050919050565b6101e9816101d6565b81146101f457600080fd5b50565b600081519050610206816101e0565b92915050565b600080600080600080600060e0888a03121561022b5761022a610173565b5b60006102398a828b016101c1565b975050602061024a8a828b016101c1565b965050604061025b8a828b016101c1565b955050606061026c8a828b016101f7565b945050608061027d8a828b016101f7565b93505060a061028e8a828b016101f7565b92505060c061029f8a828b016101f7565b91505092959891949750929550565b7f4e487b7100000000000000000000000000000000000000000000000000000000600052601160045260246000fd5b60006102e8826101d6565b91506102f3836101d6565b925082820190508082111561030b5761030a6102ae565b5b92915050565b600082825260208201905092915050565b7f4665652070657263656e7461676573206d75737420746f74616c203130300000600082015250565b6000610358601e83610311565b915061036382610322565b602082019050919050565b600060208201905081810360008301526103878161034b565b9050919050565b6134c88061039d6000396000f3fe608060405234801561001057600080fd5b506004361061014d5760003560e01c8063776e11dd116100c35780639cbe5efd1161007c5780639cbe5efd14610383578063a46934df146103a1578063a694fc3a146103bf578063c3dfdae6146103db578063e2eb41ff146103f9578063f01f20df1461042a5761014d565b8063776e11dd146102905780637d984d5f146102c157806388c3ffb0146102df5780638902fb72146103145780638c65c81f146103325780639c8497ea146103675761014d565b8063313dab2011610115578063313dab20146101e05780633cea70d9146101fe578063476f64b71461021c5780634c09f37c14610238578063650b872514610256578063722cedb7146102725761014d565b8063072ea61c146101525780631940ec201461017057806324bfc7671461018c57806329430c55146101a85780632e17de78146101c4575b600080fd5b61015a610448565b604051610167919061228f565b60405180910390f35b61018a600480360381019061018591906122db565b61044e565b005b6101a660048036038101906101a191906123a0565b610685565b005b6101c260048036038101906101bd91906123f3565b610bbe565b005b6101de60048036038101906101d99190612433565b610e16565b005b6101e8611034565b6040516101f5919061228f565b60405180910390f35b61020661103a565b604051610213919061246f565b60405180910390f35b610236600480360381019061023191906123a0565b611060565b005b6102406113e3565b60405161024d919061228f565b60405180910390f35b610270600480360381019061026b9190612433565b6113e9565b005b61027a611b53565b604051610287919061246f565b60405180910390f35b6102aa60048036038101906102a59190612433565b611b79565b6040516102b8929190612606565b60405180910390f35b6102c9611d05565b6040516102d6919061263d565b60405180910390f35b6102f960048036038101906102f49190612433565b611e00565b60405161030b9695949392919061267a565b60405180910390f35b61031c611e61565b604051610329919061228f565b60405180910390f35b61034c60048036038101906103479190612433565b611e67565b60405161035e9695949392919061267a565b60405180910390f35b610381600480360381019061037c91906122db565b611eb0565b005b61038b61202f565b604051610398919061228f565b60405180910390f35b6103a9612035565b6040516103b6919061228f565b60405180910390f35b6103d960048036038101906103d49190612433565b61203b565b005b6103e36121d6565b6040516103f0919061273a565b60405180910390f35b610413600480360381019061040e9190612755565b6121fc565b604051610421929190612782565b60405180910390f35b610432612220565b60405161043f919061228f565b60405180910390f35b60045481565b600260009054906101000a900473ffffffffffffffffffffffffffffffffffffffff1673ffffffffffffffffffffffffffffffffffffffff163373ffffffffffffffffffffffffffffffffffffffff16146104de576040517f08c379a00000000000000000000000000000000000000000000000000000000081526004016104d590612808565b60405180910390fd5b438111610520576040517f08c379a000000000000000000000000000000000000000000000000000000000815260040161051790612874565b60405180910390fd5b60008211610563576040517f08c379a000000000000000000000000000000000000000000000000000000000815260040161055a906128e0565b60405180910390fd5b600084116105a6576040517f08c379a000000000000000000000000000000000000000000000000000000000815260040161059d9061294c565b60405180910390fd5b600083116105e9576040517f08c379a00000000000000000000000000000000000000000000000000000000081526004016105e0906129b8565b60405180910390fd5b600a60008154809291906105fc90612a07565b9190505550600060086000600a5481526020019081526020016000209050848160000181905550838160010181905550828160020181905550818160030181905550600a547f9de43849eca848bc561bc5cb7a33e6fd7adf171800b0a18c07e7371d8cb82311868686866040516106769493929190612a4f565b60405180910390a25050505050565b61068d612226565b600260009054906101000a900473ffffffffffffffffffffffffffffffffffffffff1673ffffffffffffffffffffffffffffffffffffffff163373ffffffffffffffffffffffffffffffffffffffff16148061071457508173ffffffffffffffffffffffffffffffffffffffff163373ffffffffffffffffffffffffffffffffffffffff16145b610753576040517f08c379a000000000000000000000000000000000000000000000000000000000815260040161074a90612ae0565b60405180910390fd5b60006008600085815260200190815260200160002090508060050160009054906101000a900460ff16156107bc576040517f08c379a00000000000000000000000000000000000000000000000000000000081526004016107b390612b4c565b60405180910390fd5b80600301544310610802576040517f08c379a00000000000000000000000000000000000000000000000000000000081526004016107f990612bb8565b60405180910390fd5b806000015481600701805490501061084f576040517f08c379a000000000000000000000000000000000000000000000000000000000815260040161084690612c24565b60405180910390fd5b6004548261085d9190612c44565b600960008573ffffffffffffffffffffffffffffffffffffffff1673ffffffffffffffffffffffffffffffffffffffff1681526020019081526020016000206000015410156108e1576040517f08c379a00000000000000000000000000000000000000000000000000000000081526004016108d890612cc4565b60405180910390fd5b600060646005546004546108f59190612ce4565b6108ff9190612d55565b90506000816004546109119190612d86565b9050600454846109219190612c44565b600960008773ffffffffffffffffffffffffffffffffffffffff1673ffffffffffffffffffffffffffffffffffffffff16815260200190815260200160002060000160008282546109729190612d86565b9250508190555083600960008773ffffffffffffffffffffffffffffffffffffffff1673ffffffffffffffffffffffffffffffffffffffff16815260200190815260200160002060010160008282546109cb9190612c44565b9250508190555081600b60008282546109e49190612c44565b9250508190555080600c60008282546109fd9190612c44565b9250508190555060008360060160008773ffffffffffffffffffffffffffffffffffffffff1673ffffffffffffffffffffffffffffffffffffffff1681526020019081526020016000205403610ab35782600701859080600181540180825580915050600190039060005260206000200160009091909190916101000a81548173ffffffffffffffffffffffffffffffffffffffff021916908373ffffffffffffffffffffffffffffffffffffffff1602179055505b838360060160008773ffffffffffffffffffffffffffffffffffffffff1673ffffffffffffffffffffffffffffffffffffffff1681526020019081526020016000206000828254610b049190612c44565b9250508190555083836004016000828254610b1f9190612c44565b92505081905550858573ffffffffffffffffffffffffffffffffffffffff167f69709081123af56c2184b84e5245901e6402d49bb0824856edf7935871adea1586604051610b6d919061228f565b60405180910390a37f14d09c0cd06f0c57ad8c7c33f12276caa9a2e176797cd0adc2edeefee10e99a1600b54604051610ba6919061228f565b60405180910390a1505050610bb961226c565b505050565b600360009054906101000a900473ffffffffffffffffffffffffffffffffffffffff1673ffffffffffffffffffffffffffffffffffffffff163373ffffffffffffffffffffffffffffffffffffffff1614610c4e576040517f08c379a0000000000000000000000000000000000000000000000000000000008152600401610c4590612e06565b60405180910390fd5b600b54811115610c93576040517f08c379a0000000000000000000000000000000000000000000000000000000008152600401610c8a90612e72565b60405180910390fd5b80600b6000828254610ca59190612d86565b92505081905550600160009054906101000a900473ffffffffffffffffffffffffffffffffffffffff1673ffffffffffffffffffffffffffffffffffffffff1663a9059cbb83836040518363ffffffff1660e01b8152600401610d09929190612e92565b6020604051808303816000875af1158015610d28573d6000803e3d6000fd5b505050506040513d601f19601f82011682018060405250810190610d4c9190612ee7565b610d8b576040517f08c379a0000000000000000000000000000000000000000000000000000000008152600401610d8290612f60565b60405180910390fd5b8173ffffffffffffffffffffffffffffffffffffffff167fbb0ffbaca8d9b3f50ce6232f80a3acd883de0227a51e9da1908d203bc3ffa6c682604051610dd1919061228f565b60405180910390a27f14d09c0cd06f0c57ad8c7c33f12276caa9a2e176797cd0adc2edeefee10e99a1600b54604051610e0a919061228f565b60405180910390a15050565b610e1e612226565b80600960003373ffffffffffffffffffffffffffffffffffffffff1673ffffffffffffffffffffffffffffffffffffffff168152602001908152602001600020600001541015610ea3576040517f08c379a0000000000000000000000000000000000000000000000000000000008152600401610e9a90612cc4565b60405180910390fd5b80600960003373ffffffffffffffffffffffffffffffffffffffff1673ffffffffffffffffffffffffffffffffffffffff1681526020019081526020016000206000016000828254610ef59190612d86565b92505081905550600160009054906101000a900473ffffffffffffffffffffffffffffffffffffffff1673ffffffffffffffffffffffffffffffffffffffff1663a9059cbb33836040518363ffffffff1660e01b8152600401610f59929190612e92565b6020604051808303816000875af1158015610f78573d6000803e3d6000fd5b505050506040513d601f19601f82011682018060405250810190610f9c9190612ee7565b610fdb576040517f08c379a0000000000000000000000000000000000000000000000000000000008152600401610fd290612fcc565b60405180910390fd5b3373ffffffffffffffffffffffffffffffffffffffff167f0f5bb82176feb1b5e747e28471aa92156a04d9f3ab9f45f28e2d704232b93f7582604051611021919061228f565b60405180910390a261103161226c565b50565b600b5481565b600360009054906101000a900473ffffffffffffffffffffffffffffffffffffffff1681565b611068612226565b600260009054906101000a900473ffffffffffffffffffffffffffffffffffffffff1673ffffffffffffffffffffffffffffffffffffffff163373ffffffffffffffffffffffffffffffffffffffff1614806110ef57508173ffffffffffffffffffffffffffffffffffffffff163373ffffffffffffffffffffffffffffffffffffffff16145b61112e576040517f08c379a000000000000000000000000000000000000000000000000000000000815260040161112590612ae0565b60405180910390fd5b60006008600085815260200190815260200160002090508060050160009054906101000a900460ff1615611197576040517f08c379a000000000000000000000000000000000000000000000000000000000815260040161118e90612b4c565b60405180910390fd5b806003015443106111dd576040517f08c379a00000000000000000000000000000000000000000000000000000000081526004016111d490612bb8565b60405180910390fd5b818160060160008573ffffffffffffffffffffffffffffffffffffffff1673ffffffffffffffffffffffffffffffffffffffff168152602001908152602001600020541015611261576040517f08c379a000000000000000000000000000000000000000000000000000000000815260040161125890613038565b60405180910390fd5b818160060160008573ffffffffffffffffffffffffffffffffffffffff1673ffffffffffffffffffffffffffffffffffffffff16815260200190815260200160002060008282546112b29190612d86565b92505081905550818160040160008282546112cd9190612d86565b9250508190555081600960008573ffffffffffffffffffffffffffffffffffffffff1673ffffffffffffffffffffffffffffffffffffffff16815260200190815260200160002060010160008282546113269190612d86565b9250508190555081600960008573ffffffffffffffffffffffffffffffffffffffff1673ffffffffffffffffffffffffffffffffffffffff168152602001908152602001600020600001600082825461137f9190612c44565b92505081905550838373ffffffffffffffffffffffffffffffffffffffff167f7b2aab217d59212ed84e1fa51038e4e5d7cb2a67163f2322f335682ecad1cf70846040516113cd919061228f565b60405180910390a3506113de61226c565b505050565b60055481565b6113f1612226565b60006008600083815260200190815260200160002090508060050160009054906101000a900460ff161561145a576040517f08c379a000000000000000000000000000000000000000000000000000000000815260040161145190612b4c565b60405180910390fd5b80600301544310156114a1576040517f08c379a0000000000000000000000000000000000000000000000000000000008152600401611498906130a4565b60405180910390fd5b60018160050160006101000a81548160ff02191690831515021790555060008160070180548060200260200160405190810160405280929190818152602001828054801561154457602002820191906000526020600020905b8160009054906101000a900473ffffffffffffffffffffffffffffffffffffffff1673ffffffffffffffffffffffffffffffffffffffff16815260200190600101908083116114fa575b505050505090506000815167ffffffffffffffff811115611568576115676130c4565b5b6040519080825280602002602001820160405280156115965781602001602082028036833780820191505090505b509050826001015483600401541061185f5760006103e8846002015485600401546115c19190612ce4565b6115cb9190612d55565b905060005b835181101561181e5760008482815181106115ee576115ed6130f3565b5b6020026020010151905060008660060160008373ffffffffffffffffffffffffffffffffffffffff1673ffffffffffffffffffffffffffffffffffffffff1681526020019081526020016000205490506000876004015485836116519190612ce4565b61165b9190612d55565b905080868581518110611671576116706130f3565b5b60200260200101818152505081600960008573ffffffffffffffffffffffffffffffffffffffff1673ffffffffffffffffffffffffffffffffffffffff16815260200190815260200160002060010160008282546116cf9190612d86565b9250508190555080600960008573ffffffffffffffffffffffffffffffffffffffff1673ffffffffffffffffffffffffffffffffffffffff16815260200190815260200160002060000160008282546117289190612c44565b92505081905550600160009054906101000a900473ffffffffffffffffffffffffffffffffffffffff1673ffffffffffffffffffffffffffffffffffffffff1663a9059cbb84836040518363ffffffff1660e01b815260040161178c929190612e92565b6020604051808303816000875af11580156117ab573d6000803e3d6000fd5b505050506040513d601f19601f820116820180604052508101906117cf9190612ee7565b61180e576040517f08c379a00000000000000000000000000000000000000000000000000000000081526004016118059061316e565b60405180910390fd5b50505080806001019150506115d0565b50847fdc9e7aec23307fb2a81e7c61cbb3389e845b96ec92371c198b12164ef5af60e984846040516118519291906131da565b60405180910390a250611b45565b60005b8251811015611ad05760008382815181106118805761187f6130f3565b5b6020026020010151905060008560060160008373ffffffffffffffffffffffffffffffffffffffff1673ffffffffffffffffffffffffffffffffffffffff16815260200190815260200160002054905060008484815181106118e5576118e46130f3565b5b60200260200101818152505080600960008473ffffffffffffffffffffffffffffffffffffffff1673ffffffffffffffffffffffffffffffffffffffff16815260200190815260200160002060010160008282546119439190612d86565b92505081905550600060646007548361195c9190612ce4565b6119669190612d55565b9050600081836119769190612d86565b9050600160009054906101000a900473ffffffffffffffffffffffffffffffffffffffff1673ffffffffffffffffffffffffffffffffffffffff1663a9059cbb6000846040518363ffffffff1660e01b81526004016119d6929190612e92565b6020604051808303816000875af11580156119f5573d6000803e3d6000fd5b505050506040513d601f19601f82011682018060405250810190611a199190612ee7565b611a58576040517f08c379a0000000000000000000000000000000000000000000000000000000008152600401611a4f90613270565b60405180910390fd5b8373ffffffffffffffffffffffffffffffffffffffff167ffd38818f5291bf0bb3a2a48aadc06ba8757865d1dabd804585338aab3009dcb683604051611a9e919061228f565b60405180910390a280600b6000828254611ab89190612c44565b92505081905550505050508080600101915050611862565b50837fdc9e7aec23307fb2a81e7c61cbb3389e845b96ec92371c198b12164ef5af60e98383604051611b039291906132dc565b60405180910390a27f14d09c0cd06f0c57ad8c7c33f12276caa9a2e176797cd0adc2edeefee10e99a1600b54604051611b3c919061228f565b60405180910390a15b505050611b5061226c565b50565b600260009054906101000a900473ffffffffffffffffffffffffffffffffffffffff1681565b606080600060086000858152602001908152602001600020905080600701805480602002602001604051908101604052809291908181526020018280548015611c1757602002820191906000526020600020905b8160009054906101000a900473ffffffffffffffffffffffffffffffffffffffff1673ffffffffffffffffffffffffffffffffffffffff1681526020019060010190808311611bcd575b50505050509250825167ffffffffffffffff811115611c3957611c386130c4565b5b604051908082528060200260200182016040528015611c675781602001602082028036833780820191505090505b50915060005b8351811015611cfe57816006016000858381518110611c8f57611c8e6130f3565b5b602002602001015173ffffffffffffffffffffffffffffffffffffffff1673ffffffffffffffffffffffffffffffffffffffff16815260200190815260200160002054838281518110611ce557611ce46130f3565b5b6020026020010181815250508080600101915050611c6d565b5050915091565b60606000600a5467ffffffffffffffff811115611d2557611d246130c4565b5b604051908082528060200260200182016040528015611d535781602001602082028036833780820191505090505b509050600080600190505b600a548111611df4576008600082815260200190815260200160002060050160009054906101000a900460ff16158015611dad5750600860008281526020019081526020016000206003015443105b15611de15780838381518110611dc657611dc56130f3565b5b6020026020010181815250508180611ddd90612a07565b9250505b8080611dec90612a07565b915050611d5e565b50808252819250505090565b6000806000806000806000600860008981526020019081526020016000209050806000015481600101548260020154836003015484600401548560050160009054906101000a900460ff169650965096509650965096505091939550919395565b60065481565b60086020528060005260406000206000915090508060000154908060010154908060020154908060030154908060040154908060050160009054906101000a900460ff16905086565b600360009054906101000a900473ffffffffffffffffffffffffffffffffffffffff1673ffffffffffffffffffffffffffffffffffffffff163373ffffffffffffffffffffffffffffffffffffffff1614611f40576040517f08c379a0000000000000000000000000000000000000000000000000000000008152600401611f3790612e06565b60405180910390fd5b60648284611f4e9190612c44565b14611f8e576040517f08c379a0000000000000000000000000000000000000000000000000000000008152600401611f8590613372565b60405180910390fd5b6064811115611fd2576040517f08c379a0000000000000000000000000000000000000000000000000000000008152600401611fc990613404565b60405180910390fd5b836004819055508260058190555081600681905550806007819055507f7db0317b48d5cfa60fe5406abab969900e8dfb1ecbe177a05af0595780cb85c784848460405161202193929190613424565b60405180910390a150505050565b600a5481565b600c5481565b612043612226565b600160009054906101000a900473ffffffffffffffffffffffffffffffffffffffff1673ffffffffffffffffffffffffffffffffffffffff166323b872dd3330846040518463ffffffff1660e01b81526004016120a29392919061345b565b6020604051808303816000875af11580156120c1573d6000803e3d6000fd5b505050506040513d601f19601f820116820180604052508101906120e59190612ee7565b612124576040517f08c379a000000000000000000000000000000000000000000000000000000000815260040161211b90612fcc565b60405180910390fd5b80600960003373ffffffffffffffffffffffffffffffffffffffff1673ffffffffffffffffffffffffffffffffffffffff16815260200190815260200160002060000160008282546121769190612c44565b925050819055503373ffffffffffffffffffffffffffffffffffffffff167f9e71bc8eea02a63969f509818f2dafb9254532904319f9dbda79b67bd34a5f3d826040516121c3919061228f565b60405180910390a26121d361226c565b50565b600160009054906101000a900473ffffffffffffffffffffffffffffffffffffffff1681565b60096020528060005260406000206000915090508060000154908060010154905082565b60075481565b600260005403612262576040517f3ee5aeb500000000000000000000000000000000000000000000000000000000815260040160405180910390fd5b6002600081905550565b6001600081905550565b6000819050919050565b61228981612276565b82525050565b60006020820190506122a46000830184612280565b92915050565b600080fd5b6122b881612276565b81146122c357600080fd5b50565b6000813590506122d5816122af565b92915050565b600080600080608085870312156122f5576122f46122aa565b5b6000612303878288016122c6565b9450506020612314878288016122c6565b9350506040612325878288016122c6565b9250506060612336878288016122c6565b91505092959194509250565b600073ffffffffffffffffffffffffffffffffffffffff82169050919050565b600061236d82612342565b9050919050565b61237d81612362565b811461238857600080fd5b50565b60008135905061239a81612374565b92915050565b6000806000606084860312156123b9576123b86122aa565b5b60006123c7868287016122c6565b93505060206123d88682870161238b565b92505060406123e9868287016122c6565b9150509250925092565b6000806040838503121561240a576124096122aa565b5b60006124188582860161238b565b9250506020612429858286016122c6565b9150509250929050565b600060208284031215612449576124486122aa565b5b6000612457848285016122c6565b91505092915050565b61246981612362565b82525050565b60006020820190506124846000830184612460565b92915050565b600081519050919050565b600082825260208201905092915050565b6000819050602082019050919050565b6124bf81612362565b82525050565b60006124d183836124b6565b60208301905092915050565b6000602082019050919050565b60006124f58261248a565b6124ff8185612495565b935061250a836124a6565b8060005b8381101561253b57815161252288826124c5565b975061252d836124dd565b92505060018101905061250e565b5085935050505092915050565b600081519050919050565b600082825260208201905092915050565b6000819050602082019050919050565b61257d81612276565b82525050565b600061258f8383612574565b60208301905092915050565b6000602082019050919050565b60006125b382612548565b6125bd8185612553565b93506125c883612564565b8060005b838110156125f95781516125e08882612583565b97506125eb8361259b565b9250506001810190506125cc565b5085935050505092915050565b6000604082019050818103600083015261262081856124ea565b9050818103602083015261263481846125a8565b90509392505050565b6000602082019050818103600083015261265781846125a8565b905092915050565b60008115159050919050565b6126748161265f565b82525050565b600060c08201905061268f6000830189612280565b61269c6020830188612280565b6126a96040830187612280565b6126b66060830186612280565b6126c36080830185612280565b6126d060a083018461266b565b979650505050505050565b6000819050919050565b60006127006126fb6126f684612342565b6126db565b612342565b9050919050565b6000612712826126e5565b9050919050565b600061272482612707565b9050919050565b61273481612719565b82525050565b600060208201905061274f600083018461272b565b92915050565b60006020828403121561276b5761276a6122aa565b5b60006127798482850161238b565b91505092915050565b60006040820190506127976000830185612280565b6127a46020830184612280565b9392505050565b600082825260208201905092915050565b7f4f6e6c7920686f7374206167656e7420616c6c6f776564000000000000000000600082015250565b60006127f26017836127ab565b91506127fd826127bc565b602082019050919050565b60006020820190508181036000830152612821816127e5565b9050919050565b7f496e76616c69642065787069727920626c6f636b000000000000000000000000600082015250565b600061285e6014836127ab565b915061286982612828565b602082019050919050565b6000602082019050818103600083015261288d81612851565b9050919050565b7f496e76616c6964206d756c7469706c6965720000000000000000000000000000600082015250565b60006128ca6012836127ab565b91506128d582612894565b602082019050919050565b600060208201905081810360008301526128f9816128bd565b9050919050565b7f496e76616c696420706c6179657220636f756e74000000000000000000000000600082015250565b60006129366014836127ab565b915061294182612900565b602082019050919050565b6000602082019050818103600083015261296581612929565b9050919050565b7f496e76616c6964207468726573686f6c64000000000000000000000000000000600082015250565b60006129a26011836127ab565b91506129ad8261296c565b602082019050919050565b600060208201905081810360008301526129d181612995565b9050919050565b7f4e487b7100000000000000000000000000000000000000000000000000000000600052601160045260246000fd5b6000612a1282612276565b91507fffffffffffffffffffffffffffffffffffffffffffffffffffffffffffffffff8203612a4457612a436129d8565b5b600182019050919050565b6000608082019050612a646000830187612280565b612a716020830186612280565b612a7e6040830185612280565b612a8b6060830184612280565b95945050505050565b7f556e617574686f72697a65640000000000000000000000000000000000000000600082015250565b6000612aca600c836127ab565b9150612ad582612a94565b602082019050919050565b60006020820190508181036000830152612af981612abd565b9050919050565b7f526f756e6420616c7265616479207265736f6c76656400000000000000000000600082015250565b6000612b366016836127ab565b9150612b4182612b00565b602082019050919050565b60006020820190508181036000830152612b6581612b29565b9050919050565b7f526f756e64206578706972656400000000000000000000000000000000000000600082015250565b6000612ba2600d836127ab565b9150612bad82612b6c565b602082019050919050565b60006020820190508181036000830152612bd181612b95565b9050919050565b7f526f756e642066756c6c00000000000000000000000000000000000000000000600082015250565b6000612c0e600a836127ab565b9150612c1982612bd8565b602082019050919050565b60006020820190508181036000830152612c3d81612c01565b9050919050565b6000612c4f82612276565b9150612c5a83612276565b9250828201905080821115612c7257612c716129d8565b5b92915050565b7f496e73756666696369656e7420617661696c61626c65207374616b6573000000600082015250565b6000612cae601d836127ab565b9150612cb982612c78565b602082019050919050565b60006020820190508181036000830152612cdd81612ca1565b9050919050565b6000612cef82612276565b9150612cfa83612276565b9250828202612d0881612276565b91508282048414831517612d1f57612d1e6129d8565b5b5092915050565b7f4e487b7100000000000000000000000000000000000000000000000000000000600052601260045260246000fd5b6000612d6082612276565b9150612d6b83612276565b925082612d7b57612d7a612d26565b5b828204905092915050565b6000612d9182612276565b9150612d9c83612276565b9250828203905081811115612db457612db36129d8565b5b92915050565b7f4f6e6c79207472656173757279206d616e6167657220616c6c6f776564000000600082015250565b6000612df0601d836127ab565b9150612dfb82612dba565b602082019050919050565b60006020820190508181036000830152612e1f81612de3565b9050919050565b7f496e73756666696369656e742074726561737572792062616c616e6365000000600082015250565b6000612e5c601d836127ab565b9150612e6782612e26565b602082019050919050565b60006020820190508181036000830152612e8b81612e4f565b9050919050565b6000604082019050612ea76000830185612460565b612eb46020830184612280565b9392505050565b612ec48161265f565b8114612ecf57600080fd5b50565b600081519050612ee181612ebb565b92915050565b600060208284031215612efd57612efc6122aa565b5b6000612f0b84828501612ed2565b91505092915050565b7f496e766573746d656e74207472616e73666572206661696c6564000000000000600082015250565b6000612f4a601a836127ab565b9150612f5582612f14565b602082019050919050565b60006020820190508181036000830152612f7981612f3d565b9050919050565b7f5472616e73666572206661696c65640000000000000000000000000000000000600082015250565b6000612fb6600f836127ab565b9150612fc182612f80565b602082019050919050565b60006020820190508181036000830152612fe581612fa9565b9050919050565b7f496e73756666696369656e74207374616b6520696e20726f756e640000000000600082015250565b6000613022601b836127ab565b915061302d82612fec565b602082019050919050565b6000602082019050818103600083015261305181613015565b9050919050565b7f526f756e64206e6f742065787069726564000000000000000000000000000000600082015250565b600061308e6011836127ab565b915061309982613058565b602082019050919050565b600060208201905081810360008301526130bd81613081565b9050919050565b7f4e487b7100000000000000000000000000000000000000000000000000000000600052604160045260246000fd5b7f4e487b7100000000000000000000000000000000000000000000000000000000600052603260045260246000fd5b7f526577617264207472616e73666572206661696c656400000000000000000000600082015250565b60006131586016836127ab565b915061316382613122565b602082019050919050565b600060208201905081810360008301526131878161314b565b9050919050565b7f5448524553484f4c445f4d455400000000000000000000000000000000000000600082015250565b60006131c4600d836127ab565b91506131cf8261318e565b602082019050919050565b600060608201905081810360008301526131f3816131b7565b9050818103602083015261320781856124ea565b9050818103604083015261321b81846125a8565b90509392505050565b7f4275726e207472616e73666572206661696c6564000000000000000000000000600082015250565b600061325a6014836127ab565b915061326582613224565b602082019050919050565b600060208201905081810360008301526132898161324d565b9050919050565b7f5448524553484f4c445f4e4f545f4d4554000000000000000000000000000000600082015250565b60006132c66011836127ab565b91506132d182613290565b602082019050919050565b600060608201905081810360008301526132f5816132b9565b9050818103602083015261330981856124ea565b9050818103604083015261331d81846125a8565b90509392505050565b7f4665652070657263656e7461676573206d75737420746f74616c203130300000600082015250565b600061335c601e836127ab565b915061336782613326565b602082019050919050565b6000602082019050818103600083015261338b8161334f565b9050919050565b7f4275726e2070657263656e74616765206d757374206e6f74206578636565642060008201527f3130300000000000000000000000000000000000000000000000000000000000602082015250565b60006133ee6023836127ab565b91506133f982613392565b604082019050919050565b6000602082019050818103600083015261341d816133e1565b9050919050565b60006060820190506134396000830186612280565b6134466020830185612280565b6134536040830184612280565b949350505050565b60006060820190506134706000830186612460565b61347d6020830185612460565b61348a6040830184612280565b94935050505056fea2646970667358221220753a4153a93977002a63decff0d69f1fbad698238d51f0fd0b590c71373f3e1b64736f6c634300081c0033",
  "linkReferences": {},
  "deployedLinkReferences": {}
}